{
  "address": "0x0F74B45105039b007f64B023781db99B4D3f9827",
  "abi": [
    {
      "inputs": [
        {
          "internalType": "string",
          "name": "baseURI",
          "type": "string"
        },
        {
          "internalType": "address",
          "name": "mstTokenAddress",
          "type": "address"
        },
        {
          "internalType": "uint256",
          "name": "mintFee",
          "type": "uint256"
        }
      ],
      "stateMutability": "nonpayable",
      "type": "constructor"
    },
    {
      "inputs": [],
      "name": "AlreadyStacked",
      "type": "error"
    },
    {
      "inputs": [],
      "name": "NotStacked",
      "type": "error"
    },
    {
      "inputs": [],
      "name": "TimeLock",
      "type": "error"
    },
    {
      "anonymous": false,
      "inputs": [
        {
          "indexed": true,
          "internalType": "address",
          "name": "account",
          "type": "address"
        },
        {
          "indexed": true,
          "internalType": "address",
          "name": "operator",
          "type": "address"
        },
        {
          "indexed": false,
          "internalType": "bool",
          "name": "approved",
          "type": "bool"
        }
      ],
      "name": "ApprovalForAll",
      "type": "event"
    },
    {
      "anonymous": false,
      "inputs": [
        {
          "indexed": true,
          "internalType": "address",
          "name": "previousOwner",
          "type": "address"
        },
        {
          "indexed": true,
          "internalType": "address",
          "name": "newOwner",
          "type": "address"
        }
      ],
      "name": "OwnershipTransferred",
      "type": "event"
    },
    {
      "anonymous": false,
      "inputs": [
        {
          "indexed": false,
          "internalType": "address",
          "name": "account",
          "type": "address"
        }
      ],
      "name": "Paused",
      "type": "event"
    },
    {
      "anonymous": false,
      "inputs": [
        {
          "indexed": true,
          "internalType": "address",
          "name": "operator",
          "type": "address"
        },
        {
          "indexed": true,
          "internalType": "address",
          "name": "from",
          "type": "address"
        },
        {
          "indexed": true,
          "internalType": "address",
          "name": "to",
          "type": "address"
        },
        {
          "indexed": false,
          "internalType": "uint256[]",
          "name": "ids",
          "type": "uint256[]"
        },
        {
          "indexed": false,
          "internalType": "uint256[]",
          "name": "values",
          "type": "uint256[]"
        }
      ],
      "name": "TransferBatch",
      "type": "event"
    },
    {
      "anonymous": false,
      "inputs": [
        {
          "indexed": true,
          "internalType": "address",
          "name": "operator",
          "type": "address"
        },
        {
          "indexed": true,
          "internalType": "address",
          "name": "from",
          "type": "address"
        },
        {
          "indexed": true,
          "internalType": "address",
          "name": "to",
          "type": "address"
        },
        {
          "indexed": false,
          "internalType": "uint256",
          "name": "id",
          "type": "uint256"
        },
        {
          "indexed": false,
          "internalType": "uint256",
          "name": "value",
          "type": "uint256"
        }
      ],
      "name": "TransferSingle",
      "type": "event"
    },
    {
      "anonymous": false,
      "inputs": [
        {
          "indexed": false,
          "internalType": "string",
          "name": "value",
          "type": "string"
        },
        {
          "indexed": true,
          "internalType": "uint256",
          "name": "id",
          "type": "uint256"
        }
      ],
      "name": "URI",
      "type": "event"
    },
    {
      "anonymous": false,
      "inputs": [
        {
          "indexed": false,
          "internalType": "address",
          "name": "account",
          "type": "address"
        }
      ],
      "name": "Unpaused",
      "type": "event"
    },
    {
      "inputs": [
        {
          "internalType": "address[]",
          "name": "targetAirdropAddresses",
          "type": "address[]"
        }
      ],
      "name": "Airdrop",
      "outputs": [],
      "stateMutability": "nonpayable",
      "type": "function"
    },
    {
      "inputs": [],
      "name": "GetAvailableTokenCount",
      "outputs": [
        {
          "internalType": "uint256",
          "name": "",
          "type": "uint256"
        }
      ],
      "stateMutability": "view",
      "type": "function"
    },
    {
      "inputs": [],
      "name": "GetFaucet",
      "outputs": [],
      "stateMutability": "nonpayable",
      "type": "function"
    },
    {
      "inputs": [],
      "name": "Mint",
      "outputs": [],
      "stateMutability": "nonpayable",
      "type": "function"
    },
    {
      "inputs": [],
      "name": "PauseUnpause",
      "outputs": [],
      "stateMutability": "nonpayable",
      "type": "function"
    },
    {
      "inputs": [],
      "name": "Stack",
      "outputs": [],
      "stateMutability": "nonpayable",
      "type": "function"
    },
    {
      "inputs": [],
      "name": "Unstack",
      "outputs": [],
      "stateMutability": "nonpayable",
      "type": "function"
    },
    {
      "inputs": [
        {
          "internalType": "uint256",
          "name": "mintFee",
          "type": "uint256"
        }
      ],
      "name": "UpdateMintFee",
      "outputs": [],
      "stateMutability": "nonpayable",
      "type": "function"
    },
    {
      "inputs": [],
      "name": "WithdrawalTokens",
      "outputs": [],
      "stateMutability": "nonpayable",
      "type": "function"
    },
    {
      "inputs": [],
      "name": "_MSTTokenAddress",
      "outputs": [
        {
          "internalType": "address",
          "name": "",
          "type": "address"
        }
      ],
      "stateMutability": "view",
      "type": "function"
    },
    {
      "inputs": [],
      "name": "_MintFeeInMST",
      "outputs": [
        {
          "internalType": "uint256",
          "name": "",
          "type": "uint256"
        }
      ],
      "stateMutability": "view",
      "type": "function"
    },
    {
      "inputs": [
        {
          "internalType": "address",
          "name": "",
          "type": "address"
        }
      ],
      "name": "_NextAvailableFaucet",
      "outputs": [
        {
          "internalType": "uint256",
          "name": "",
          "type": "uint256"
        }
      ],
      "stateMutability": "view",
      "type": "function"
    },
    {
      "inputs": [
        {
          "internalType": "uint256",
          "name": "",
          "type": "uint256"
        }
      ],
      "name": "_faucetAmount",
      "outputs": [
        {
          "internalType": "uint256",
          "name": "",
          "type": "uint256"
        }
      ],
      "stateMutability": "view",
      "type": "function"
    },
    {
      "inputs": [
        {
          "internalType": "address",
          "name": "",
          "type": "address"
        }
      ],
      "name": "_stacking",
      "outputs": [
        {
          "internalType": "uint256",
          "name": "",
          "type": "uint256"
        }
      ],
      "stateMutability": "view",
      "type": "function"
    },
    {
      "inputs": [],
      "name": "_totalStacked",
      "outputs": [
        {
          "internalType": "uint256",
          "name": "",
          "type": "uint256"
        }
      ],
      "stateMutability": "view",
      "type": "function"
    },
    {
      "inputs": [
        {
          "internalType": "address",
          "name": "account",
          "type": "address"
        },
        {
          "internalType": "uint256",
          "name": "id",
          "type": "uint256"
        }
      ],
      "name": "balanceOf",
      "outputs": [
        {
          "internalType": "uint256",
          "name": "",
          "type": "uint256"
        }
      ],
      "stateMutability": "view",
      "type": "function"
    },
    {
      "inputs": [
        {
          "internalType": "address[]",
          "name": "accounts",
          "type": "address[]"
        },
        {
          "internalType": "uint256[]",
          "name": "ids",
          "type": "uint256[]"
        }
      ],
      "name": "balanceOfBatch",
      "outputs": [
        {
          "internalType": "uint256[]",
          "name": "",
          "type": "uint256[]"
        }
      ],
      "stateMutability": "view",
      "type": "function"
    },
    {
      "inputs": [
        {
          "internalType": "address",
          "name": "account",
          "type": "address"
        },
        {
          "internalType": "address",
          "name": "operator",
          "type": "address"
        }
      ],
      "name": "isApprovedForAll",
      "outputs": [
        {
          "internalType": "bool",
          "name": "",
          "type": "bool"
        }
      ],
      "stateMutability": "view",
      "type": "function"
    },
    {
      "inputs": [],
      "name": "owner",
      "outputs": [
        {
          "internalType": "address",
          "name": "",
          "type": "address"
        }
      ],
      "stateMutability": "view",
      "type": "function"
    },
    {
      "inputs": [],
      "name": "paused",
      "outputs": [
        {
          "internalType": "bool",
          "name": "",
          "type": "bool"
        }
      ],
      "stateMutability": "view",
      "type": "function"
    },
    {
      "inputs": [],
      "name": "renounceOwnership",
      "outputs": [],
      "stateMutability": "nonpayable",
      "type": "function"
    },
    {
      "inputs": [
        {
          "internalType": "address",
          "name": "from",
          "type": "address"
        },
        {
          "internalType": "address",
          "name": "to",
          "type": "address"
        },
        {
          "internalType": "uint256[]",
          "name": "ids",
          "type": "uint256[]"
        },
        {
          "internalType": "uint256[]",
          "name": "amounts",
          "type": "uint256[]"
        },
        {
          "internalType": "bytes",
          "name": "data",
          "type": "bytes"
        }
      ],
      "name": "safeBatchTransferFrom",
      "outputs": [],
      "stateMutability": "nonpayable",
      "type": "function"
    },
    {
      "inputs": [
        {
          "internalType": "address",
          "name": "from",
          "type": "address"
        },
        {
          "internalType": "address",
          "name": "to",
          "type": "address"
        },
        {
          "internalType": "uint256",
          "name": "id",
          "type": "uint256"
        },
        {
          "internalType": "uint256",
          "name": "amount",
          "type": "uint256"
        },
        {
          "internalType": "bytes",
          "name": "data",
          "type": "bytes"
        }
      ],
      "name": "safeTransferFrom",
      "outputs": [],
      "stateMutability": "nonpayable",
      "type": "function"
    },
    {
      "inputs": [
        {
          "internalType": "address",
          "name": "operator",
          "type": "address"
        },
        {
          "internalType": "bool",
          "name": "approved",
          "type": "bool"
        }
      ],
      "name": "setApprovalForAll",
      "outputs": [],
      "stateMutability": "nonpayable",
      "type": "function"
    },
    {
      "inputs": [
        {
          "internalType": "bytes4",
          "name": "interfaceId",
          "type": "bytes4"
        }
      ],
      "name": "supportsInterface",
      "outputs": [
        {
          "internalType": "bool",
          "name": "",
          "type": "bool"
        }
      ],
      "stateMutability": "view",
      "type": "function"
    },
    {
      "inputs": [
        {
          "internalType": "address",
          "name": "newOwner",
          "type": "address"
        }
      ],
      "name": "transferOwnership",
      "outputs": [],
      "stateMutability": "nonpayable",
      "type": "function"
    },
    {
      "inputs": [
        {
          "internalType": "uint256",
          "name": "withoutStacking",
          "type": "uint256"
        },
        {
          "internalType": "uint256",
          "name": "withStacking",
          "type": "uint256"
        }
      ],
      "name": "updateFaucetAmount",
      "outputs": [],
      "stateMutability": "nonpayable",
      "type": "function"
    },
    {
      "inputs": [
        {
          "internalType": "uint256",
          "name": "",
          "type": "uint256"
        }
      ],
      "name": "uri",
      "outputs": [
        {
          "internalType": "string",
          "name": "",
          "type": "string"
        }
      ],
      "stateMutability": "view",
      "type": "function"
    }
  ],
  "transactionHash": "0x2b084c16bd2986ffe49a2ab2eb7f16fd63a23d5bb401ef2dbaeff65148af997e",
  "args": [
    "",
    "0x41C1660267ABE974Cb889bFD41829d4E1313d675",
    4000000
  ],
  "numDeployments": 3,
  "solcInputHash": "9fa33d4bf77a5b5ef2c1526331675f90",
  "bytecode": "0x60806040523480156200001157600080fd5b506040516200457a3803806200457a833981810160405281019062000037919062000440565b8262000049816200012a60201b60201c565b506000600360006101000a81548160ff02191690831515021790555062000085620000796200013f60201b60201c565b6200014760201b60201c565b60046001908060018154018082558091505060019003906000526020600020016000909190919091505560046032908060018154018082558091505060019003906000526020600020016000909190919091505581600860006101000a81548173ffffffffffffffffffffffffffffffffffffffff021916908373ffffffffffffffffffffffffffffffffffffffff16021790555080600981905550505050620007e3565b80600290816200013b9190620006fc565b5050565b600033905090565b6000600360019054906101000a900473ffffffffffffffffffffffffffffffffffffffff16905081600360016101000a81548173ffffffffffffffffffffffffffffffffffffffff021916908373ffffffffffffffffffffffffffffffffffffffff1602179055508173ffffffffffffffffffffffffffffffffffffffff168173ffffffffffffffffffffffffffffffffffffffff167f8be0079c531659141344cd1fd0a4f28419497f9722a3daafe3b4186f6b6457e060405160405180910390a35050565b6000604051905090565b600080fd5b600080fd5b600080fd5b600080fd5b6000601f19601f8301169050919050565b7f4e487b7100000000000000000000000000000000000000000000000000000000600052604160045260246000fd5b62000276826200022b565b810181811067ffffffffffffffff821117156200029857620002976200023c565b5b80604052505050565b6000620002ad6200020d565b9050620002bb82826200026b565b919050565b600067ffffffffffffffff821115620002de57620002dd6200023c565b5b620002e9826200022b565b9050602081019050919050565b60005b8381101562000316578082015181840152602081019050620002f9565b60008484015250505050565b6000620003396200033384620002c0565b620002a1565b90508281526020810184848401111562000358576200035762000226565b5b62000365848285620002f6565b509392505050565b600082601f83011262000385576200038462000221565b5b81516200039784826020860162000322565b91505092915050565b600073ffffffffffffffffffffffffffffffffffffffff82169050919050565b6000620003cd82620003a0565b9050919050565b620003df81620003c0565b8114620003eb57600080fd5b50565b600081519050620003ff81620003d4565b92915050565b6000819050919050565b6200041a8162000405565b81146200042657600080fd5b50565b6000815190506200043a816200040f565b92915050565b6000806000606084860312156200045c576200045b62000217565b5b600084015167ffffffffffffffff8111156200047d576200047c6200021c565b5b6200048b868287016200036d565b93505060206200049e86828701620003ee565b9250506040620004b18682870162000429565b9150509250925092565b600081519050919050565b7f4e487b7100000000000000000000000000000000000000000000000000000000600052602260045260246000fd5b600060028204905060018216806200050e57607f821691505b602082108103620005245762000523620004c6565b5b50919050565b60008190508160005260206000209050919050565b60006020601f8301049050919050565b600082821b905092915050565b6000600883026200058e7fffffffffffffffffffffffffffffffffffffffffffffffffffffffffffffffff826200054f565b6200059a86836200054f565b95508019841693508086168417925050509392505050565b6000819050919050565b6000620005dd620005d7620005d18462000405565b620005b2565b62000405565b9050919050565b6000819050919050565b620005f983620005bc565b620006116200060882620005e4565b8484546200055c565b825550505050565b600090565b6200062862000619565b62000635818484620005ee565b505050565b5b818110156200065d57620006516000826200061e565b6001810190506200063b565b5050565b601f821115620006ac5762000676816200052a565b62000681846200053f565b8101602085101562000691578190505b620006a9620006a0856200053f565b8301826200063a565b50505b505050565b600082821c905092915050565b6000620006d160001984600802620006b1565b1980831691505092915050565b6000620006ec8383620006be565b9150826002028217905092915050565b6200070782620004bb565b67ffffffffffffffff8111156200072357620007226200023c565b5b6200072f8254620004f5565b6200073c82828562000661565b600060209050601f8311600181146200077457600084156200075f578287015190505b6200076b8582620006de565b865550620007db565b601f19841662000784866200052a565b60005b82811015620007ae5784890151825560018201915060208501945060208101905062000787565b86831015620007ce5784890151620007ca601f891682620006be565b8355505b6001600288020188555050505b505050505050565b613d8780620007f36000396000f3fe608060405234801561001057600080fd5b50600436106101c35760003560e01c8063715018a6116100f9578063ac92cbae11610097578063e985e9c511610071578063e985e9c514610482578063ece8c31c146104b2578063f242432a146104ce578063f2fde38b146104ea576101c3565b8063ac92cbae1461043e578063c3ff67a614610448578063d812784e14610452576101c3565b80637d9854af116100d35780637d9854af146103dc5780638da5cb5b146103fa578063a22cb46514610418578063a797ca5014610434576101c3565b8063715018a61461039657806374ee6b7c146103a057806379aae48c146103be576101c3565b806334c73884116101665780634261dc3e116101405780634261dc3e146102fa5780634e1273f41461032a5780635c975abb1461035a5780635f9bf2ad14610378576101c3565b806334c73884146102ca5780633dfa9bc6146102d45780633e2780cb146102f0576101c3565b80630e89341c116101a25780630e89341c146102445780632de61fc9146102745780632eb2c2d61461027e5780633280053c1461029a576101c3565b8062fdd58e146101c857806301ffc9a7146101f857806302607b1914610228575b600080fd5b6101e260048036038101906101dd919061251f565b610506565b6040516101ef919061256e565b60405180910390f35b610212600480360381019061020d91906125e1565b6105ce565b60405161021f9190612629565b60405180910390f35b610242600480360381019061023d9190612644565b6106b0565b005b61025e60048036038101906102599190612684565b610704565b60405161026b9190612741565b60405180910390f35b61027c610798565b005b61029860048036038101906102939190612960565b6107c5565b005b6102b460048036038101906102af9190612684565b6108a7565b6040516102c1919061256e565b60405180910390f35b6102d26108cb565b005b6102ee60048036038101906102e99190612684565b6109a1565b005b6102f86109b3565b005b610314600480360381019061030f9190612a2f565b610ad2565b604051610321919061256e565b60405180910390f35b610344600480360381019061033f9190612b1f565b610aea565b6040516103519190612c55565b60405180910390f35b610362610c03565b60405161036f9190612629565b60405180910390f35b610380610c1a565b60405161038d919061256e565b60405180910390f35b61039e610c76565b005b6103a8610c8a565b6040516103b5919061256e565b60405180910390f35b6103c6610c90565b6040516103d39190612c86565b60405180910390f35b6103e4610cb6565b6040516103f1919061256e565b60405180910390f35b610402610cbc565b60405161040f9190612c86565b60405180910390f35b610432600480360381019061042d9190612ccd565b610ce6565b005b61043c610cfc565b005b610446610f10565b005b610450611056565b005b61046c60048036038101906104679190612a2f565b61112b565b604051610479919061256e565b60405180910390f35b61049c60048036038101906104979190612d0d565b611143565b6040516104a99190612629565b60405180910390f35b6104cc60048036038101906104c79190612d4d565b6111d7565b005b6104e860048036038101906104e39190612d96565b611238565b005b61050460048036038101906104ff9190612a2f565b611323565b005b60008073ffffffffffffffffffffffffffffffffffffffff168373ffffffffffffffffffffffffffffffffffffffff1603610576576040517f08c379a000000000000000000000000000000000000000000000000000000000815260040161056d90612e9f565b60405180910390fd5b60008083815260200190815260200160002060008473ffffffffffffffffffffffffffffffffffffffff1673ffffffffffffffffffffffffffffffffffffffff16815260200190815260200160002054905092915050565b60007fd9b67a26000000000000000000000000000000000000000000000000000000007bffffffffffffffffffffffffffffffffffffffffffffffffffffffff1916827bffffffffffffffffffffffffffffffffffffffffffffffffffffffff1916148061069957507f0e89341c000000000000000000000000000000000000000000000000000000007bffffffffffffffffffffffffffffffffffffffffffffffffffffffff1916827bffffffffffffffffffffffffffffffffffffffffffffffffffffffff1916145b806106a957506106a8826113a6565b5b9050919050565b6106b8611410565b8160046000815481106106ce576106cd612ebf565b5b90600052602060002001819055508060046001815481106106f2576106f1612ebf565b5b90600052602060002001819055505050565b60606002805461071390612f1d565b80601f016020809104026020016040519081016040528092919081815260200182805461073f90612f1d565b801561078c5780601f106107615761010080835404028352916020019161078c565b820191906000526020600020905b81548152906001019060200180831161076f57829003601f168201915b50505050509050919050565b6107a0611410565b6107a8610c03565b156107ba576107b561148e565b6107c3565b6107c26114f1565b5b565b6107cd611554565b73ffffffffffffffffffffffffffffffffffffffff168573ffffffffffffffffffffffffffffffffffffffff16148061081357506108128561080d611554565b611143565b5b610852576040517f08c379a000000000000000000000000000000000000000000000000000000000815260040161084990612fc0565b60405180910390fd5b6000610893576040517f08c379a000000000000000000000000000000000000000000000000000000000815260040161088a9061302c565b60405180910390fd5b6108a0858585858561155c565b5050505050565b600481815481106108b757600080fd5b906000526020600020016000915090505481565b600860009054906101000a900473ffffffffffffffffffffffffffffffffffffffff1673ffffffffffffffffffffffffffffffffffffffff166323b872dd3330670de0b6b3a7640000600954610921919061307b565b6040518463ffffffff1660e01b815260040161093f939291906130bd565b6020604051808303816000875af115801561095e573d6000803e3d6000fd5b505050506040513d601f19601f820116820180604052508101906109829190613109565b5061099f336001806040518060200160405280600081525061187d565b565b6109a9611410565b8060098190555050565b60006109bd610c1a565b116109fd576040517f08c379a00000000000000000000000000000000000000000000000000000000081526004016109f490613182565b60405180910390fd5b6000600560003373ffffffffffffffffffffffffffffffffffffffff1673ffffffffffffffffffffffffffffffffffffffff1681526020019081526020016000205414610a76576040517fd79e095f00000000000000000000000000000000000000000000000000000000815260040160405180910390fd5b6001600754610a8591906131a2565b6007819055506001600560003373ffffffffffffffffffffffffffffffffffffffff1673ffffffffffffffffffffffffffffffffffffffff16815260200190815260200160002081905550565b60066020528060005260406000206000915090505481565b60608151835114610b30576040517f08c379a0000000000000000000000000000000000000000000000000000000008152600401610b2790613248565b60405180910390fd5b6000835167ffffffffffffffff811115610b4d57610b4c612768565b5b604051908082528060200260200182016040528015610b7b5781602001602082028036833780820191505090505b50905060005b8451811015610bf857610bc8858281518110610ba057610b9f612ebf565b5b6020026020010151858381518110610bbb57610bba612ebf565b5b6020026020010151610506565b828281518110610bdb57610bda612ebf565b5b60200260200101818152505080610bf190613268565b9050610b81565b508091505092915050565b6000600360009054906101000a900460ff16905090565b6000600560003373ffffffffffffffffffffffffffffffffffffffff1673ffffffffffffffffffffffffffffffffffffffff16815260200190815260200160002054610c67336001610506565b610c7191906132b0565b905090565b610c7e611410565b610c886000611a2d565b565b60095481565b600860009054906101000a900473ffffffffffffffffffffffffffffffffffffffff1681565b60075481565b6000600360019054906101000a900473ffffffffffffffffffffffffffffffffffffffff16905090565b610cf8610cf1611554565b8383611af3565b5050565b610d04611c5f565b42600660003373ffffffffffffffffffffffffffffffffffffffff1673ffffffffffffffffffffffffffffffffffffffff168152602001908152602001600020541115610d7d576040517fbb76d8a500000000000000000000000000000000000000000000000000000000815260040160405180910390fd5b610d88426001611ca9565b600660003373ffffffffffffffffffffffffffffffffffffffff1673ffffffffffffffffffffffffffffffffffffffff1681526020019081526020016000208190555060006004600081548110610de257610de1612ebf565b5b906000526020600020015490506000600560003373ffffffffffffffffffffffffffffffffffffffff1673ffffffffffffffffffffffffffffffffffffffff1681526020019081526020016000205414610e59576004600181548110610e4b57610e4a612ebf565b5b906000526020600020015490505b600860009054906101000a900473ffffffffffffffffffffffffffffffffffffffff1673ffffffffffffffffffffffffffffffffffffffff1663a9059cbb33670de0b6b3a764000084610eac919061307b565b6040518363ffffffff1660e01b8152600401610ec99291906132e4565b6020604051808303816000875af1158015610ee8573d6000803e3d6000fd5b505050506040513d601f19601f82011682018060405250810190610f0c9190613109565b5050565b610f18611410565b600860009054906101000a900473ffffffffffffffffffffffffffffffffffffffff1673ffffffffffffffffffffffffffffffffffffffff1663a9059cbb33600860009054906101000a900473ffffffffffffffffffffffffffffffffffffffff1673ffffffffffffffffffffffffffffffffffffffff166370a08231306040518263ffffffff1660e01b8152600401610fb29190612c86565b602060405180830381865afa158015610fcf573d6000803e3d6000fd5b505050506040513d601f19601f82011682018060405250810190610ff39190613322565b6040518363ffffffff1660e01b81526004016110109291906132e4565b6020604051808303816000875af115801561102f573d6000803e3d6000fd5b505050506040513d601f19601f820116820180604052508101906110539190613109565b50565b6000600560003373ffffffffffffffffffffffffffffffffffffffff1673ffffffffffffffffffffffffffffffffffffffff16815260200190815260200160002054036110cf576040517fd273178700000000000000000000000000000000000000000000000000000000815260040160405180910390fd5b60016007546110de91906132b0565b6007819055506000600560003373ffffffffffffffffffffffffffffffffffffffff1673ffffffffffffffffffffffffffffffffffffffff16815260200190815260200160002081905550565b60056020528060005260406000206000915090505481565b6000600160008473ffffffffffffffffffffffffffffffffffffffff1673ffffffffffffffffffffffffffffffffffffffff16815260200190815260200160002060008373ffffffffffffffffffffffffffffffffffffffff1673ffffffffffffffffffffffffffffffffffffffff16815260200190815260200160002060009054906101000a900460ff16905092915050565b6111df611410565b60005b81518110156112345761122182828151811061120157611200612ebf565b5b60200260200101516001806040518060200160405280600081525061187d565b808061122c90613268565b9150506111e2565b5050565b611240611554565b73ffffffffffffffffffffffffffffffffffffffff168573ffffffffffffffffffffffffffffffffffffffff161480611286575061128585611280611554565b611143565b5b6112c5576040517f08c379a00000000000000000000000000000000000000000000000000000000081526004016112bc906133c1565b60405180910390fd5b816112ce610c1a565b101561130f576040517f08c379a000000000000000000000000000000000000000000000000000000000815260040161130690613453565b60405180910390fd5b61131c8585858585611cda565b5050505050565b61132b611410565b600073ffffffffffffffffffffffffffffffffffffffff168173ffffffffffffffffffffffffffffffffffffffff160361139a576040517f08c379a0000000000000000000000000000000000000000000000000000000008152600401611391906134e5565b60405180910390fd5b6113a381611a2d565b50565b60007f01ffc9a7000000000000000000000000000000000000000000000000000000007bffffffffffffffffffffffffffffffffffffffffffffffffffffffff1916827bffffffffffffffffffffffffffffffffffffffffffffffffffffffff1916149050919050565b611418611554565b73ffffffffffffffffffffffffffffffffffffffff16611436610cbc565b73ffffffffffffffffffffffffffffffffffffffff161461148c576040517f08c379a000000000000000000000000000000000000000000000000000000000815260040161148390613551565b60405180910390fd5b565b611496611f75565b6000600360006101000a81548160ff0219169083151502179055507f5db9ee0a495bf2e6ff9c91a7834c1ba4fdd244a5e8aa4e537bd38aeae4b073aa6114da611554565b6040516114e79190612c86565b60405180910390a1565b6114f9611c5f565b6001600360006101000a81548160ff0219169083151502179055507f62e78cea01bee320cd4e420270b5ea74000d11b0c9f74754ebdbfc544b05a25861153d611554565b60405161154a9190612c86565b60405180910390a1565b600033905090565b81518351146115a0576040517f08c379a0000000000000000000000000000000000000000000000000000000008152600401611597906135e3565b60405180910390fd5b600073ffffffffffffffffffffffffffffffffffffffff168473ffffffffffffffffffffffffffffffffffffffff160361160f576040517f08c379a000000000000000000000000000000000000000000000000000000000815260040161160690613675565b60405180910390fd5b6000611619611554565b9050611629818787878787611fbe565b60005b84518110156117da57600085828151811061164a57611649612ebf565b5b60200260200101519050600085838151811061166957611668612ebf565b5b60200260200101519050600080600084815260200190815260200160002060008b73ffffffffffffffffffffffffffffffffffffffff1673ffffffffffffffffffffffffffffffffffffffff1681526020019081526020016000205490508181101561170a576040517f08c379a000000000000000000000000000000000000000000000000000000000815260040161170190613707565b60405180910390fd5b81810360008085815260200190815260200160002060008c73ffffffffffffffffffffffffffffffffffffffff1673ffffffffffffffffffffffffffffffffffffffff168152602001908152602001600020819055508160008085815260200190815260200160002060008b73ffffffffffffffffffffffffffffffffffffffff1673ffffffffffffffffffffffffffffffffffffffff16815260200190815260200160002060008282546117bf91906131a2565b92505081905550505050806117d390613268565b905061162c565b508473ffffffffffffffffffffffffffffffffffffffff168673ffffffffffffffffffffffffffffffffffffffff168273ffffffffffffffffffffffffffffffffffffffff167f4a39dc06d4c0dbc64b70af90fd698a233a518aa5d07e595d983b8c0526c8f7fb8787604051611851929190613727565b60405180910390a461186781878787878761201c565b611875818787878787612024565b505050505050565b600073ffffffffffffffffffffffffffffffffffffffff168473ffffffffffffffffffffffffffffffffffffffff16036118ec576040517f08c379a00000000000000000000000000000000000000000000000000000000081526004016118e3906137d0565b60405180910390fd5b60006118f6611554565b90506000611903856121fb565b90506000611910856121fb565b905061192183600089858589611fbe565b8460008088815260200190815260200160002060008973ffffffffffffffffffffffffffffffffffffffff1673ffffffffffffffffffffffffffffffffffffffff168152602001908152602001600020600082825461198091906131a2565b925050819055508673ffffffffffffffffffffffffffffffffffffffff16600073ffffffffffffffffffffffffffffffffffffffff168473ffffffffffffffffffffffffffffffffffffffff167fc3d58168c5ae7397731d063d5bbf3d657854427343f4c083240f7aacaa2d0f6289896040516119fe9291906137f0565b60405180910390a4611a158360008985858961201c565b611a2483600089898989612275565b50505050505050565b6000600360019054906101000a900473ffffffffffffffffffffffffffffffffffffffff16905081600360016101000a81548173ffffffffffffffffffffffffffffffffffffffff021916908373ffffffffffffffffffffffffffffffffffffffff1602179055508173ffffffffffffffffffffffffffffffffffffffff168173ffffffffffffffffffffffffffffffffffffffff167f8be0079c531659141344cd1fd0a4f28419497f9722a3daafe3b4186f6b6457e060405160405180910390a35050565b8173ffffffffffffffffffffffffffffffffffffffff168373ffffffffffffffffffffffffffffffffffffffff1603611b61576040517f08c379a0000000000000000000000000000000000000000000000000000000008152600401611b589061388b565b60405180910390fd5b80600160008573ffffffffffffffffffffffffffffffffffffffff1673ffffffffffffffffffffffffffffffffffffffff16815260200190815260200160002060008473ffffffffffffffffffffffffffffffffffffffff1673ffffffffffffffffffffffffffffffffffffffff16815260200190815260200160002060006101000a81548160ff0219169083151502179055508173ffffffffffffffffffffffffffffffffffffffff168373ffffffffffffffffffffffffffffffffffffffff167f17307eab39ab6107e8899845ad3d59bd9653f200f220920489ca2b5937696c3183604051611c529190612629565b60405180910390a3505050565b611c67610c03565b15611ca7576040517f08c379a0000000000000000000000000000000000000000000000000000000008152600401611c9e906138f7565b60405180910390fd5b565b60006201518082611cba919061307b565b83611cc591906131a2565b905082811015611cd457600080fd5b92915050565b600073ffffffffffffffffffffffffffffffffffffffff168473ffffffffffffffffffffffffffffffffffffffff1603611d49576040517f08c379a0000000000000000000000000000000000000000000000000000000008152600401611d4090613675565b60405180910390fd5b6000611d53611554565b90506000611d60856121fb565b90506000611d6d856121fb565b9050611d7d838989858589611fbe565b600080600088815260200190815260200160002060008a73ffffffffffffffffffffffffffffffffffffffff1673ffffffffffffffffffffffffffffffffffffffff16815260200190815260200160002054905085811015611e14576040517f08c379a0000000000000000000000000000000000000000000000000000000008152600401611e0b90613707565b60405180910390fd5b85810360008089815260200190815260200160002060008b73ffffffffffffffffffffffffffffffffffffffff1673ffffffffffffffffffffffffffffffffffffffff168152602001908152602001600020819055508560008089815260200190815260200160002060008a73ffffffffffffffffffffffffffffffffffffffff1673ffffffffffffffffffffffffffffffffffffffff1681526020019081526020016000206000828254611ec991906131a2565b925050819055508773ffffffffffffffffffffffffffffffffffffffff168973ffffffffffffffffffffffffffffffffffffffff168573ffffffffffffffffffffffffffffffffffffffff167fc3d58168c5ae7397731d063d5bbf3d657854427343f4c083240f7aacaa2d0f628a8a604051611f469291906137f0565b60405180910390a4611f5c848a8a86868a61201c565b611f6a848a8a8a8a8a612275565b505050505050505050565b611f7d610c03565b611fbc576040517f08c379a0000000000000000000000000000000000000000000000000000000008152600401611fb390613963565b60405180910390fd5b565b611fcc86868686868661244c565b611fd4610c03565b15612014576040517f08c379a000000000000000000000000000000000000000000000000000000000815260040161200b906139f5565b60405180910390fd5b505050505050565b505050505050565b6120438473ffffffffffffffffffffffffffffffffffffffff16612454565b156121f3578373ffffffffffffffffffffffffffffffffffffffff1663bc197c8187878686866040518663ffffffff1660e01b8152600401612089959493929190613a6a565b6020604051808303816000875af19250505080156120c557506040513d601f19601f820116820180604052508101906120c29190613ae7565b60015b61216a576120d1613b21565b806308c379a00361212d57506120e5613b43565b806120f0575061212f565b806040517f08c379a00000000000000000000000000000000000000000000000000000000081526004016121249190612741565b60405180910390fd5b505b6040517f08c379a000000000000000000000000000000000000000000000000000000000815260040161216190613c45565b60405180910390fd5b63bc197c8160e01b7bffffffffffffffffffffffffffffffffffffffffffffffffffffffff1916817bffffffffffffffffffffffffffffffffffffffffffffffffffffffff1916146121f1576040517f08c379a00000000000000000000000000000000000000000000000000000000081526004016121e890613cd7565b60405180910390fd5b505b505050505050565b60606000600167ffffffffffffffff81111561221a57612219612768565b5b6040519080825280602002602001820160405280156122485781602001602082028036833780820191505090505b50905082816000815181106122605761225f612ebf565b5b60200260200101818152505080915050919050565b6122948473ffffffffffffffffffffffffffffffffffffffff16612454565b15612444578373ffffffffffffffffffffffffffffffffffffffff1663f23a6e6187878686866040518663ffffffff1660e01b81526004016122da959493929190613cf7565b6020604051808303816000875af192505050801561231657506040513d601f19601f820116820180604052508101906123139190613ae7565b60015b6123bb57612322613b21565b806308c379a00361237e5750612336613b43565b806123415750612380565b806040517f08c379a00000000000000000000000000000000000000000000000000000000081526004016123759190612741565b60405180910390fd5b505b6040517f08c379a00000000000000000000000000000000000000000000000000000000081526004016123b290613c45565b60405180910390fd5b63f23a6e6160e01b7bffffffffffffffffffffffffffffffffffffffffffffffffffffffff1916817bffffffffffffffffffffffffffffffffffffffffffffffffffffffff191614612442576040517f08c379a000000000000000000000000000000000000000000000000000000000815260040161243990613cd7565b60405180910390fd5b505b505050505050565b505050505050565b6000808273ffffffffffffffffffffffffffffffffffffffff163b119050919050565b6000604051905090565b600080fd5b600080fd5b600073ffffffffffffffffffffffffffffffffffffffff82169050919050565b60006124b68261248b565b9050919050565b6124c6816124ab565b81146124d157600080fd5b50565b6000813590506124e3816124bd565b92915050565b6000819050919050565b6124fc816124e9565b811461250757600080fd5b50565b600081359050612519816124f3565b92915050565b6000806040838503121561253657612535612481565b5b6000612544858286016124d4565b92505060206125558582860161250a565b9150509250929050565b612568816124e9565b82525050565b6000602082019050612583600083018461255f565b92915050565b60007fffffffff0000000000000000000000000000000000000000000000000000000082169050919050565b6125be81612589565b81146125c957600080fd5b50565b6000813590506125db816125b5565b92915050565b6000602082840312156125f7576125f6612481565b5b6000612605848285016125cc565b91505092915050565b60008115159050919050565b6126238161260e565b82525050565b600060208201905061263e600083018461261a565b92915050565b6000806040838503121561265b5761265a612481565b5b60006126698582860161250a565b925050602061267a8582860161250a565b9150509250929050565b60006020828403121561269a57612699612481565b5b60006126a88482850161250a565b91505092915050565b600081519050919050565b600082825260208201905092915050565b60005b838110156126eb5780820151818401526020810190506126d0565b60008484015250505050565b6000601f19601f8301169050919050565b6000612713826126b1565b61271d81856126bc565b935061272d8185602086016126cd565b612736816126f7565b840191505092915050565b6000602082019050818103600083015261275b8184612708565b905092915050565b600080fd5b7f4e487b7100000000000000000000000000000000000000000000000000000000600052604160045260246000fd5b6127a0826126f7565b810181811067ffffffffffffffff821117156127bf576127be612768565b5b80604052505050565b60006127d2612477565b90506127de8282612797565b919050565b600067ffffffffffffffff8211156127fe576127fd612768565b5b602082029050602081019050919050565b600080fd5b6000612827612822846127e3565b6127c8565b9050808382526020820190506020840283018581111561284a5761284961280f565b5b835b81811015612873578061285f888261250a565b84526020840193505060208101905061284c565b5050509392505050565b600082601f83011261289257612891612763565b5b81356128a2848260208601612814565b91505092915050565b600080fd5b600067ffffffffffffffff8211156128cb576128ca612768565b5b6128d4826126f7565b9050602081019050919050565b82818337600083830152505050565b60006129036128fe846128b0565b6127c8565b90508281526020810184848401111561291f5761291e6128ab565b5b61292a8482856128e1565b509392505050565b600082601f83011261294757612946612763565b5b81356129578482602086016128f0565b91505092915050565b600080600080600060a0868803121561297c5761297b612481565b5b600061298a888289016124d4565b955050602061299b888289016124d4565b945050604086013567ffffffffffffffff8111156129bc576129bb612486565b5b6129c88882890161287d565b935050606086013567ffffffffffffffff8111156129e9576129e8612486565b5b6129f58882890161287d565b925050608086013567ffffffffffffffff811115612a1657612a15612486565b5b612a2288828901612932565b9150509295509295909350565b600060208284031215612a4557612a44612481565b5b6000612a53848285016124d4565b91505092915050565b600067ffffffffffffffff821115612a7757612a76612768565b5b602082029050602081019050919050565b6000612a9b612a9684612a5c565b6127c8565b90508083825260208201905060208402830185811115612abe57612abd61280f565b5b835b81811015612ae75780612ad388826124d4565b845260208401935050602081019050612ac0565b5050509392505050565b600082601f830112612b0657612b05612763565b5b8135612b16848260208601612a88565b91505092915050565b60008060408385031215612b3657612b35612481565b5b600083013567ffffffffffffffff811115612b5457612b53612486565b5b612b6085828601612af1565b925050602083013567ffffffffffffffff811115612b8157612b80612486565b5b612b8d8582860161287d565b9150509250929050565b600081519050919050565b600082825260208201905092915050565b6000819050602082019050919050565b612bcc816124e9565b82525050565b6000612bde8383612bc3565b60208301905092915050565b6000602082019050919050565b6000612c0282612b97565b612c0c8185612ba2565b9350612c1783612bb3565b8060005b83811015612c48578151612c2f8882612bd2565b9750612c3a83612bea565b925050600181019050612c1b565b5085935050505092915050565b60006020820190508181036000830152612c6f8184612bf7565b905092915050565b612c80816124ab565b82525050565b6000602082019050612c9b6000830184612c77565b92915050565b612caa8161260e565b8114612cb557600080fd5b50565b600081359050612cc781612ca1565b92915050565b60008060408385031215612ce457612ce3612481565b5b6000612cf2858286016124d4565b9250506020612d0385828601612cb8565b9150509250929050565b60008060408385031215612d2457612d23612481565b5b6000612d32858286016124d4565b9250506020612d43858286016124d4565b9150509250929050565b600060208284031215612d6357612d62612481565b5b600082013567ffffffffffffffff811115612d8157612d80612486565b5b612d8d84828501612af1565b91505092915050565b600080600080600060a08688031215612db257612db1612481565b5b6000612dc0888289016124d4565b9550506020612dd1888289016124d4565b9450506040612de28882890161250a565b9350506060612df38882890161250a565b925050608086013567ffffffffffffffff811115612e1457612e13612486565b5b612e2088828901612932565b9150509295509295909350565b7f455243313135353a2061646472657373207a65726f206973206e6f742061207660008201527f616c6964206f776e657200000000000000000000000000000000000000000000602082015250565b6000612e89602a836126bc565b9150612e9482612e2d565b604082019050919050565b60006020820190508181036000830152612eb881612e7c565b9050919050565b7f4e487b7100000000000000000000000000000000000000000000000000000000600052603260045260246000fd5b7f4e487b7100000000000000000000000000000000000000000000000000000000600052602260045260246000fd5b60006002820490506001821680612f3557607f821691505b602082108103612f4857612f47612eee565b5b50919050565b7f455243313135353a207472616e736665722063616c6c6572206973206e6f742060008201527f6f776e6572206e6f7220617070726f7665640000000000000000000000000000602082015250565b6000612faa6032836126bc565b9150612fb582612f4e565b604082019050919050565b60006020820190508181036000830152612fd981612f9d565b9050919050565b7f4261746368207472616e73666572206973206e6f7420616c6c6f776564000000600082015250565b6000613016601d836126bc565b915061302182612fe0565b602082019050919050565b6000602082019050818103600083015261304581613009565b9050919050565b7f4e487b7100000000000000000000000000000000000000000000000000000000600052601160045260246000fd5b6000613086826124e9565b9150613091836124e9565b925082820261309f816124e9565b915082820484148315176130b6576130b561304c565b5b5092915050565b60006060820190506130d26000830186612c77565b6130df6020830185612c77565b6130ec604083018461255f565b949350505050565b60008151905061310381612ca1565b92915050565b60006020828403121561311f5761311e612481565b5b600061312d848285016130f4565b91505092915050565b7f596f7520646f6e6074206861766520426162794d6f6e73746572000000000000600082015250565b600061316c601a836126bc565b915061317782613136565b602082019050919050565b6000602082019050818103600083015261319b8161315f565b9050919050565b60006131ad826124e9565b91506131b8836124e9565b92508282019050808211156131d0576131cf61304c565b5b92915050565b7f455243313135353a206163636f756e747320616e6420696473206c656e67746860008201527f206d69736d617463680000000000000000000000000000000000000000000000602082015250565b60006132326029836126bc565b915061323d826131d6565b604082019050919050565b6000602082019050818103600083015261326181613225565b9050919050565b6000613273826124e9565b91507fffffffffffffffffffffffffffffffffffffffffffffffffffffffffffffffff82036132a5576132a461304c565b5b600182019050919050565b60006132bb826124e9565b91506132c6836124e9565b92508282039050818111156132de576132dd61304c565b5b92915050565b60006040820190506132f96000830185612c77565b613306602083018461255f565b9392505050565b60008151905061331c816124f3565b92915050565b60006020828403121561333857613337612481565b5b60006133468482850161330d565b91505092915050565b7f455243313135353a2063616c6c6572206973206e6f74206f776e6572206e6f7260008201527f20617070726f7665640000000000000000000000000000000000000000000000602082015250565b60006133ab6029836126bc565b91506133b68261334f565b604082019050919050565b600060208201905081810360008301526133da8161339e565b9050919050565b7f596f7520646f206e6f7420686176652074686973204e465420617661696c616260008201527f6c65000000000000000000000000000000000000000000000000000000000000602082015250565b600061343d6022836126bc565b9150613448826133e1565b604082019050919050565b6000602082019050818103600083015261346c81613430565b9050919050565b7f4f776e61626c653a206e6577206f776e657220697320746865207a65726f206160008201527f6464726573730000000000000000000000000000000000000000000000000000602082015250565b60006134cf6026836126bc565b91506134da82613473565b604082019050919050565b600060208201905081810360008301526134fe816134c2565b9050919050565b7f4f776e61626c653a2063616c6c6572206973206e6f7420746865206f776e6572600082015250565b600061353b6020836126bc565b915061354682613505565b602082019050919050565b6000602082019050818103600083015261356a8161352e565b9050919050565b7f455243313135353a2069647320616e6420616d6f756e7473206c656e6774682060008201527f6d69736d61746368000000000000000000000000000000000000000000000000602082015250565b60006135cd6028836126bc565b91506135d882613571565b604082019050919050565b600060208201905081810360008301526135fc816135c0565b9050919050565b7f455243313135353a207472616e7366657220746f20746865207a65726f20616460008201527f6472657373000000000000000000000000000000000000000000000000000000602082015250565b600061365f6025836126bc565b915061366a82613603565b604082019050919050565b6000602082019050818103600083015261368e81613652565b9050919050565b7f455243313135353a20696e73756666696369656e742062616c616e636520666f60008201527f72207472616e7366657200000000000000000000000000000000000000000000602082015250565b60006136f1602a836126bc565b91506136fc82613695565b604082019050919050565b60006020820190508181036000830152613720816136e4565b9050919050565b600060408201905081810360008301526137418185612bf7565b905081810360208301526137558184612bf7565b90509392505050565b7f455243313135353a206d696e7420746f20746865207a65726f2061646472657360008201527f7300000000000000000000000000000000000000000000000000000000000000602082015250565b60006137ba6021836126bc565b91506137c58261375e565b604082019050919050565b600060208201905081810360008301526137e9816137ad565b9050919050565b6000604082019050613805600083018561255f565b613812602083018461255f565b9392505050565b7f455243313135353a2073657474696e6720617070726f76616c2073746174757360008201527f20666f722073656c660000000000000000000000000000000000000000000000602082015250565b60006138756029836126bc565b915061388082613819565b604082019050919050565b600060208201905081810360008301526138a481613868565b9050919050565b7f5061757361626c653a2070617573656400000000000000000000000000000000600082015250565b60006138e16010836126bc565b91506138ec826138ab565b602082019050919050565b60006020820190508181036000830152613910816138d4565b9050919050565b7f5061757361626c653a206e6f7420706175736564000000000000000000000000600082015250565b600061394d6014836126bc565b915061395882613917565b602082019050919050565b6000602082019050818103600083015261397c81613940565b9050919050565b7f455243313135355061757361626c653a20746f6b656e207472616e736665722060008201527f7768696c65207061757365640000000000000000000000000000000000000000602082015250565b60006139df602c836126bc565b91506139ea82613983565b604082019050919050565b60006020820190508181036000830152613a0e816139d2565b9050919050565b600081519050919050565b600082825260208201905092915050565b6000613a3c82613a15565b613a468185613a20565b9350613a568185602086016126cd565b613a5f816126f7565b840191505092915050565b600060a082019050613a7f6000830188612c77565b613a8c6020830187612c77565b8181036040830152613a9e8186612bf7565b90508181036060830152613ab28185612bf7565b90508181036080830152613ac68184613a31565b90509695505050505050565b600081519050613ae1816125b5565b92915050565b600060208284031215613afd57613afc612481565b5b6000613b0b84828501613ad2565b91505092915050565b60008160e01c9050919050565b600060033d1115613b405760046000803e613b3d600051613b14565b90505b90565b600060443d10613bd057613b55612477565b60043d036004823e80513d602482011167ffffffffffffffff82111715613b7d575050613bd0565b808201805167ffffffffffffffff811115613b9b5750505050613bd0565b80602083010160043d038501811115613bb8575050505050613bd0565b613bc782602001850186612797565b82955050505050505b90565b7f455243313135353a207472616e7366657220746f206e6f6e2d4552433131353560008201527f526563656976657220696d706c656d656e746572000000000000000000000000602082015250565b6000613c2f6034836126bc565b9150613c3a82613bd3565b604082019050919050565b60006020820190508181036000830152613c5e81613c22565b9050919050565b7f455243313135353a204552433131353552656365697665722072656a6563746560008201527f6420746f6b656e73000000000000000000000000000000000000000000000000602082015250565b6000613cc16028836126bc565b9150613ccc82613c65565b604082019050919050565b60006020820190508181036000830152613cf081613cb4565b9050919050565b600060a082019050613d0c6000830188612c77565b613d196020830187612c77565b613d26604083018661255f565b613d33606083018561255f565b8181036080830152613d458184613a31565b9050969550505050505056fea2646970667358221220512483e611b99c4e19da5559c19dfd009b140943deb4241e2f38955bd746410664736f6c63430008110033",
  "devdoc": {
    "kind": "dev",
    "methods": {
      "balanceOf(address,uint256)": {
        "details": "See {IERC1155-balanceOf}. Requirements: - `account` cannot be the zero address."
      },
      "balanceOfBatch(address[],uint256[])": {
        "details": "See {IERC1155-balanceOfBatch}. Requirements: - `accounts` and `ids` must have the same length."
      },
      "isApprovedForAll(address,address)": {
        "details": "See {IERC1155-isApprovedForAll}."
      },
      "owner()": {
        "details": "Returns the address of the current owner."
      },
      "paused()": {
        "details": "Returns true if the contract is paused, and false otherwise."
      },
      "renounceOwnership()": {
        "details": "Leaves the contract without owner. It will not be possible to call `onlyOwner` functions anymore. Can only be called by the current owner. NOTE: Renouncing ownership will leave the contract without an owner, thereby removing any functionality that is only available to the owner."
      },
      "safeBatchTransferFrom(address,address,uint256[],uint256[],bytes)": {
        "details": "See {IERC1155-safeBatchTransferFrom}."
      },
      "safeTransferFrom(address,address,uint256,uint256,bytes)": {
        "details": "See {IERC1155-safeTransferFrom}."
      },
      "setApprovalForAll(address,bool)": {
        "details": "See {IERC1155-setApprovalForAll}."
      },
      "supportsInterface(bytes4)": {
        "details": "See {IERC165-supportsInterface}."
      },
      "transferOwnership(address)": {
        "details": "Transfers ownership of the contract to a new account (`newOwner`). Can only be called by the current owner."
      },
      "uri(uint256)": {
        "details": "See {IERC1155MetadataURI-uri}. This implementation returns the same URI for *all* token types. It relies on the token type ID substitution mechanism https://eips.ethereum.org/EIPS/eip-1155#metadata[defined in the EIP]. Clients calling this function must replace the `\\{id\\}` substring with the actual token type ID."
      }
    },
    "version": 1
  },
  "userdoc": {
    "kind": "user",
    "methods": {},
    "version": 1
  },
  "storageLayout": {
    "storage": [
      {
        "astId": 249,
        "contract": "contracts/BabyMonster.sol:BabyMonster",
        "label": "_balances",
        "offset": 0,
        "slot": "0",
        "type": "t_mapping(t_uint256,t_mapping(t_address,t_uint256))"
      },
      {
        "astId": 255,
        "contract": "contracts/BabyMonster.sol:BabyMonster",
        "label": "_operatorApprovals",
        "offset": 0,
        "slot": "1",
        "type": "t_mapping(t_address,t_mapping(t_address,t_bool))"
      },
      {
        "astId": 257,
        "contract": "contracts/BabyMonster.sol:BabyMonster",
        "label": "_uri",
        "offset": 0,
        "slot": "2",
        "type": "t_string_storage"
      },
      {
        "astId": 133,
        "contract": "contracts/BabyMonster.sol:BabyMonster",
        "label": "_paused",
        "offset": 0,
        "slot": "3",
        "type": "t_bool"
      },
      {
        "astId": 7,
        "contract": "contracts/BabyMonster.sol:BabyMonster",
        "label": "_owner",
        "offset": 1,
        "slot": "3",
        "type": "t_address"
      },
      {
        "astId": 3654,
        "contract": "contracts/BabyMonster.sol:BabyMonster",
        "label": "_faucetAmount",
        "offset": 0,
        "slot": "4",
        "type": "t_array(t_uint256)dyn_storage"
      },
      {
        "astId": 3658,
        "contract": "contracts/BabyMonster.sol:BabyMonster",
        "label": "_stacking",
        "offset": 0,
        "slot": "5",
        "type": "t_mapping(t_address,t_uint256)"
      },
      {
        "astId": 3662,
        "contract": "contracts/BabyMonster.sol:BabyMonster",
        "label": "_NextAvailableFaucet",
        "offset": 0,
        "slot": "6",
        "type": "t_mapping(t_address,t_uint256)"
      },
      {
        "astId": 3664,
        "contract": "contracts/BabyMonster.sol:BabyMonster",
        "label": "_totalStacked",
        "offset": 0,
        "slot": "7",
        "type": "t_uint256"
      },
      {
        "astId": 3666,
        "contract": "contracts/BabyMonster.sol:BabyMonster",
        "label": "_MSTTokenAddress",
        "offset": 0,
        "slot": "8",
        "type": "t_address"
      },
      {
        "astId": 3668,
        "contract": "contracts/BabyMonster.sol:BabyMonster",
        "label": "_MintFeeInMST",
        "offset": 0,
        "slot": "9",
        "type": "t_uint256"
      }
    ],
    "types": {
      "t_address": {
        "encoding": "inplace",
        "label": "address",
        "numberOfBytes": "20"
      },
      "t_array(t_uint256)dyn_storage": {
        "base": "t_uint256",
        "encoding": "dynamic_array",
        "label": "uint256[]",
        "numberOfBytes": "32"
      },
      "t_bool": {
        "encoding": "inplace",
        "label": "bool",
        "numberOfBytes": "1"
      },
      "t_mapping(t_address,t_bool)": {
        "encoding": "mapping",
        "key": "t_address",
        "label": "mapping(address => bool)",
        "numberOfBytes": "32",
        "value": "t_bool"
      },
      "t_mapping(t_address,t_mapping(t_address,t_bool))": {
        "encoding": "mapping",
        "key": "t_address",
        "label": "mapping(address => mapping(address => bool))",
        "numberOfBytes": "32",
        "value": "t_mapping(t_address,t_bool)"
      },
      "t_mapping(t_address,t_uint256)": {
        "encoding": "mapping",
        "key": "t_address",
        "label": "mapping(address => uint256)",
        "numberOfBytes": "32",
        "value": "t_uint256"
      },
      "t_mapping(t_uint256,t_mapping(t_address,t_uint256))": {
        "encoding": "mapping",
        "key": "t_uint256",
        "label": "mapping(uint256 => mapping(address => uint256))",
        "numberOfBytes": "32",
        "value": "t_mapping(t_address,t_uint256)"
      },
      "t_string_storage": {
        "encoding": "bytes",
        "label": "string",
        "numberOfBytes": "32"
      },
      "t_uint256": {
        "encoding": "inplace",
        "label": "uint256",
        "numberOfBytes": "32"
      }
    }
  }
}