{
  "address": "0xEF1d1f9BDeb50289f5b82684d49Ad2D3d3543E77",
  "abi": [
    {
      "inputs": [
        {
          "internalType": "string",
          "name": "baseURI",
          "type": "string"
        },
        {
          "internalType": "address",
          "name": "mstTokenAddress",
          "type": "address"
        }
      ],
      "stateMutability": "nonpayable",
      "type": "constructor"
    },
    {
      "inputs": [],
      "name": "AlreadyStacked",
      "type": "error"
    },
    {
      "inputs": [],
      "name": "NotStacked",
      "type": "error"
    },
    {
      "inputs": [],
      "name": "TimeLock",
      "type": "error"
    },
    {
      "anonymous": false,
      "inputs": [
        {
          "indexed": true,
          "internalType": "address",
          "name": "account",
          "type": "address"
        },
        {
          "indexed": true,
          "internalType": "address",
          "name": "operator",
          "type": "address"
        },
        {
          "indexed": false,
          "internalType": "bool",
          "name": "approved",
          "type": "bool"
        }
      ],
      "name": "ApprovalForAll",
      "type": "event"
    },
    {
      "anonymous": false,
      "inputs": [
        {
          "indexed": true,
          "internalType": "address",
          "name": "previousOwner",
          "type": "address"
        },
        {
          "indexed": true,
          "internalType": "address",
          "name": "newOwner",
          "type": "address"
        }
      ],
      "name": "OwnershipTransferred",
      "type": "event"
    },
    {
      "anonymous": false,
      "inputs": [
        {
          "indexed": false,
          "internalType": "address",
          "name": "account",
          "type": "address"
        }
      ],
      "name": "Paused",
      "type": "event"
    },
    {
      "anonymous": false,
      "inputs": [
        {
          "indexed": true,
          "internalType": "address",
          "name": "operator",
          "type": "address"
        },
        {
          "indexed": true,
          "internalType": "address",
          "name": "from",
          "type": "address"
        },
        {
          "indexed": true,
          "internalType": "address",
          "name": "to",
          "type": "address"
        },
        {
          "indexed": false,
          "internalType": "uint256[]",
          "name": "ids",
          "type": "uint256[]"
        },
        {
          "indexed": false,
          "internalType": "uint256[]",
          "name": "values",
          "type": "uint256[]"
        }
      ],
      "name": "TransferBatch",
      "type": "event"
    },
    {
      "anonymous": false,
      "inputs": [
        {
          "indexed": true,
          "internalType": "address",
          "name": "operator",
          "type": "address"
        },
        {
          "indexed": true,
          "internalType": "address",
          "name": "from",
          "type": "address"
        },
        {
          "indexed": true,
          "internalType": "address",
          "name": "to",
          "type": "address"
        },
        {
          "indexed": false,
          "internalType": "uint256",
          "name": "id",
          "type": "uint256"
        },
        {
          "indexed": false,
          "internalType": "uint256",
          "name": "value",
          "type": "uint256"
        }
      ],
      "name": "TransferSingle",
      "type": "event"
    },
    {
      "anonymous": false,
      "inputs": [
        {
          "indexed": false,
          "internalType": "string",
          "name": "value",
          "type": "string"
        },
        {
          "indexed": true,
          "internalType": "uint256",
          "name": "id",
          "type": "uint256"
        }
      ],
      "name": "URI",
      "type": "event"
    },
    {
      "anonymous": false,
      "inputs": [
        {
          "indexed": false,
          "internalType": "address",
          "name": "account",
          "type": "address"
        }
      ],
      "name": "Unpaused",
      "type": "event"
    },
    {
      "inputs": [
        {
          "internalType": "address[]",
          "name": "targetAirdropAddresses",
          "type": "address[]"
        }
      ],
      "name": "Airdrop",
      "outputs": [],
      "stateMutability": "nonpayable",
      "type": "function"
    },
    {
      "inputs": [],
      "name": "GetAvailableTokenCount",
      "outputs": [
        {
          "internalType": "uint256",
          "name": "",
          "type": "uint256"
        }
      ],
      "stateMutability": "view",
      "type": "function"
    },
    {
      "inputs": [],
      "name": "GetFaucet",
      "outputs": [],
      "stateMutability": "nonpayable",
      "type": "function"
    },
    {
      "inputs": [],
      "name": "Stack",
      "outputs": [],
      "stateMutability": "nonpayable",
      "type": "function"
    },
    {
      "inputs": [],
      "name": "Unstack",
      "outputs": [],
      "stateMutability": "nonpayable",
      "type": "function"
    },
    {
      "inputs": [],
      "name": "WithdrawalTokens",
      "outputs": [],
      "stateMutability": "nonpayable",
      "type": "function"
    },
    {
      "inputs": [],
      "name": "_MSTTokenAddress",
      "outputs": [
        {
          "internalType": "address",
          "name": "",
          "type": "address"
        }
      ],
      "stateMutability": "view",
      "type": "function"
    },
    {
      "inputs": [
        {
          "internalType": "address",
          "name": "",
          "type": "address"
        }
      ],
      "name": "_NextAvailableFaucet",
      "outputs": [
        {
          "internalType": "uint256",
          "name": "",
          "type": "uint256"
        }
      ],
      "stateMutability": "view",
      "type": "function"
    },
    {
      "inputs": [
        {
          "internalType": "uint256",
          "name": "",
          "type": "uint256"
        }
      ],
      "name": "_faucetAmount",
      "outputs": [
        {
          "internalType": "uint256",
          "name": "",
          "type": "uint256"
        }
      ],
      "stateMutability": "view",
      "type": "function"
    },
    {
      "inputs": [
        {
          "internalType": "address",
          "name": "",
          "type": "address"
        }
      ],
      "name": "_stacking",
      "outputs": [
        {
          "internalType": "uint256",
          "name": "",
          "type": "uint256"
        }
      ],
      "stateMutability": "view",
      "type": "function"
    },
    {
      "inputs": [],
      "name": "_totalStacked",
      "outputs": [
        {
          "internalType": "uint256",
          "name": "",
          "type": "uint256"
        }
      ],
      "stateMutability": "view",
      "type": "function"
    },
    {
      "inputs": [
        {
          "internalType": "address",
          "name": "account",
          "type": "address"
        },
        {
          "internalType": "uint256",
          "name": "id",
          "type": "uint256"
        }
      ],
      "name": "balanceOf",
      "outputs": [
        {
          "internalType": "uint256",
          "name": "",
          "type": "uint256"
        }
      ],
      "stateMutability": "view",
      "type": "function"
    },
    {
      "inputs": [
        {
          "internalType": "address[]",
          "name": "accounts",
          "type": "address[]"
        },
        {
          "internalType": "uint256[]",
          "name": "ids",
          "type": "uint256[]"
        }
      ],
      "name": "balanceOfBatch",
      "outputs": [
        {
          "internalType": "uint256[]",
          "name": "",
          "type": "uint256[]"
        }
      ],
      "stateMutability": "view",
      "type": "function"
    },
    {
      "inputs": [
        {
          "internalType": "address",
          "name": "account",
          "type": "address"
        },
        {
          "internalType": "address",
          "name": "operator",
          "type": "address"
        }
      ],
      "name": "isApprovedForAll",
      "outputs": [
        {
          "internalType": "bool",
          "name": "",
          "type": "bool"
        }
      ],
      "stateMutability": "view",
      "type": "function"
    },
    {
      "inputs": [],
      "name": "owner",
      "outputs": [
        {
          "internalType": "address",
          "name": "",
          "type": "address"
        }
      ],
      "stateMutability": "view",
      "type": "function"
    },
    {
      "inputs": [],
      "name": "paused",
      "outputs": [
        {
          "internalType": "bool",
          "name": "",
          "type": "bool"
        }
      ],
      "stateMutability": "view",
      "type": "function"
    },
    {
      "inputs": [],
      "name": "renounceOwnership",
      "outputs": [],
      "stateMutability": "nonpayable",
      "type": "function"
    },
    {
      "inputs": [
        {
          "internalType": "address",
          "name": "from",
          "type": "address"
        },
        {
          "internalType": "address",
          "name": "to",
          "type": "address"
        },
        {
          "internalType": "uint256[]",
          "name": "ids",
          "type": "uint256[]"
        },
        {
          "internalType": "uint256[]",
          "name": "amounts",
          "type": "uint256[]"
        },
        {
          "internalType": "bytes",
          "name": "data",
          "type": "bytes"
        }
      ],
      "name": "safeBatchTransferFrom",
      "outputs": [],
      "stateMutability": "nonpayable",
      "type": "function"
    },
    {
      "inputs": [
        {
          "internalType": "address",
          "name": "from",
          "type": "address"
        },
        {
          "internalType": "address",
          "name": "to",
          "type": "address"
        },
        {
          "internalType": "uint256",
          "name": "id",
          "type": "uint256"
        },
        {
          "internalType": "uint256",
          "name": "amount",
          "type": "uint256"
        },
        {
          "internalType": "bytes",
          "name": "data",
          "type": "bytes"
        }
      ],
      "name": "safeTransferFrom",
      "outputs": [],
      "stateMutability": "nonpayable",
      "type": "function"
    },
    {
      "inputs": [
        {
          "internalType": "address",
          "name": "operator",
          "type": "address"
        },
        {
          "internalType": "bool",
          "name": "approved",
          "type": "bool"
        }
      ],
      "name": "setApprovalForAll",
      "outputs": [],
      "stateMutability": "nonpayable",
      "type": "function"
    },
    {
      "inputs": [
        {
          "internalType": "bytes4",
          "name": "interfaceId",
          "type": "bytes4"
        }
      ],
      "name": "supportsInterface",
      "outputs": [
        {
          "internalType": "bool",
          "name": "",
          "type": "bool"
        }
      ],
      "stateMutability": "view",
      "type": "function"
    },
    {
      "inputs": [
        {
          "internalType": "address",
          "name": "newOwner",
          "type": "address"
        }
      ],
      "name": "transferOwnership",
      "outputs": [],
      "stateMutability": "nonpayable",
      "type": "function"
    },
    {
      "inputs": [
        {
          "internalType": "uint256",
          "name": "withoutStacking",
          "type": "uint256"
        },
        {
          "internalType": "uint256",
          "name": "withStacking",
          "type": "uint256"
        }
      ],
      "name": "updateFaucetAmount",
      "outputs": [],
      "stateMutability": "nonpayable",
      "type": "function"
    },
    {
      "inputs": [
        {
          "internalType": "uint256",
          "name": "",
          "type": "uint256"
        }
      ],
      "name": "uri",
      "outputs": [
        {
          "internalType": "string",
          "name": "",
          "type": "string"
        }
      ],
      "stateMutability": "view",
      "type": "function"
    }
  ],
  "transactionHash": "0x0a34f4af79e4b8c07dbd62271ce6bef573dd967b8079fe96355756fc22dd01cb",
  "args": [
    "",
    "0x41C1660267ABE974Cb889bFD41829d4E1313d675"
  ],
  "numDeployments": 1,
  "solcInputHash": "3174b535726ccd8f65e41844ae0b37fa",
  "bytecode": "0x60806040523480156200001157600080fd5b50604051620040e8380380620040e88339818101604052810190620000379190620003fd565b8162000049816200012260201b60201c565b506000600360006101000a81548160ff02191690831515021790555062000085620000796200013760201b60201c565b6200013f60201b60201c565b60046001908060018154018082558091505060019003906000526020600020016000909190919091505560046032908060018154018082558091505060019003906000526020600020016000909190919091505580600860006101000a81548173ffffffffffffffffffffffffffffffffffffffff021916908373ffffffffffffffffffffffffffffffffffffffff160217905550505062000795565b8060029081620001339190620006ae565b5050565b600033905090565b6000600360019054906101000a900473ffffffffffffffffffffffffffffffffffffffff16905081600360016101000a81548173ffffffffffffffffffffffffffffffffffffffff021916908373ffffffffffffffffffffffffffffffffffffffff1602179055508173ffffffffffffffffffffffffffffffffffffffff168173ffffffffffffffffffffffffffffffffffffffff167f8be0079c531659141344cd1fd0a4f28419497f9722a3daafe3b4186f6b6457e060405160405180910390a35050565b6000604051905090565b600080fd5b600080fd5b600080fd5b600080fd5b6000601f19601f8301169050919050565b7f4e487b7100000000000000000000000000000000000000000000000000000000600052604160045260246000fd5b6200026e8262000223565b810181811067ffffffffffffffff8211171562000290576200028f62000234565b5b80604052505050565b6000620002a562000205565b9050620002b3828262000263565b919050565b600067ffffffffffffffff821115620002d657620002d562000234565b5b620002e18262000223565b9050602081019050919050565b60005b838110156200030e578082015181840152602081019050620002f1565b60008484015250505050565b6000620003316200032b84620002b8565b62000299565b90508281526020810184848401111562000350576200034f6200021e565b5b6200035d848285620002ee565b509392505050565b600082601f8301126200037d576200037c62000219565b5b81516200038f8482602086016200031a565b91505092915050565b600073ffffffffffffffffffffffffffffffffffffffff82169050919050565b6000620003c58262000398565b9050919050565b620003d781620003b8565b8114620003e357600080fd5b50565b600081519050620003f781620003cc565b92915050565b600080604083850312156200041757620004166200020f565b5b600083015167ffffffffffffffff81111562000438576200043762000214565b5b620004468582860162000365565b92505060206200045985828601620003e6565b9150509250929050565b600081519050919050565b7f4e487b7100000000000000000000000000000000000000000000000000000000600052602260045260246000fd5b60006002820490506001821680620004b657607f821691505b602082108103620004cc57620004cb6200046e565b5b50919050565b60008190508160005260206000209050919050565b60006020601f8301049050919050565b600082821b905092915050565b600060088302620005367fffffffffffffffffffffffffffffffffffffffffffffffffffffffffffffffff82620004f7565b620005428683620004f7565b95508019841693508086168417925050509392505050565b6000819050919050565b6000819050919050565b60006200058f6200058962000583846200055a565b62000564565b6200055a565b9050919050565b6000819050919050565b620005ab836200056e565b620005c3620005ba8262000596565b84845462000504565b825550505050565b600090565b620005da620005cb565b620005e7818484620005a0565b505050565b5b818110156200060f5762000603600082620005d0565b600181019050620005ed565b5050565b601f8211156200065e576200062881620004d2565b6200063384620004e7565b8101602085101562000643578190505b6200065b6200065285620004e7565b830182620005ec565b50505b505050565b600082821c905092915050565b6000620006836000198460080262000663565b1980831691505092915050565b60006200069e838362000670565b9150826002028217905092915050565b620006b98262000463565b67ffffffffffffffff811115620006d557620006d462000234565b5b620006e182546200049d565b620006ee82828562000613565b600060209050601f83116001811462000726576000841562000711578287015190505b6200071d858262000690565b8655506200078d565b601f1984166200073686620004d2565b60005b82811015620007605784890151825560018201915060208501945060208101905062000739565b868310156200078057848901516200077c601f89168262000670565b8355505b6001600288020188555050505b505050505050565b61394380620007a56000396000f3fe608060405234801561001057600080fd5b50600436106101575760003560e01c806379aae48c116100c3578063c3ff67a61161007c578063c3ff67a61461038e578063d812784e14610398578063e985e9c5146103c8578063ece8c31c146103f8578063f242432a14610414578063f2fde38b1461043057610157565b806379aae48c146103045780637d9854af146103225780638da5cb5b14610340578063a22cb4651461035e578063a797ca501461037a578063ac92cbae1461038457610157565b80633e2780cb116101155780633e2780cb146102545780634261dc3e1461025e5780634e1273f41461028e5780635c975abb146102be5780635f9bf2ad146102dc578063715018a6146102fa57610157565b8062fdd58e1461015c57806301ffc9a71461018c57806302607b19146101bc5780630e89341c146101d85780632eb2c2d6146102085780633280053c14610224575b600080fd5b610176600480360381019061017191906121ea565b61044c565b6040516101839190612239565b60405180910390f35b6101a660048036038101906101a191906122ac565b610514565b6040516101b391906122f4565b60405180910390f35b6101d660048036038101906101d1919061230f565b6105f6565b005b6101f260048036038101906101ed919061234f565b61064a565b6040516101ff919061240c565b60405180910390f35b610222600480360381019061021d919061262b565b6106de565b005b61023e6004803603810190610239919061234f565b6107c0565b60405161024b9190612239565b60405180910390f35b61025c6107e4565b005b610278600480360381019061027391906126fa565b6108b9565b6040516102859190612239565b60405180910390f35b6102a860048036038101906102a391906127ea565b6108d1565b6040516102b59190612920565b60405180910390f35b6102c66109ea565b6040516102d391906122f4565b60405180910390f35b6102e4610a01565b6040516102f19190612239565b60405180910390f35b610302610a5d565b005b61030c610a71565b6040516103199190612951565b60405180910390f35b61032a610a97565b6040516103379190612239565b60405180910390f35b610348610a9d565b6040516103559190612951565b60405180910390f35b61037860048036038101906103739190612998565b610ac7565b005b610382610add565b005b61038c610cea565b005b610396610e30565b005b6103b260048036038101906103ad91906126fa565b610f05565b6040516103bf9190612239565b60405180910390f35b6103e260048036038101906103dd91906129d8565b610f1d565b6040516103ef91906122f4565b60405180910390f35b610412600480360381019061040d9190612a18565b610fb1565b005b61042e60048036038101906104299190612a61565b611012565b005b61044a600480360381019061044591906126fa565b6110fd565b005b60008073ffffffffffffffffffffffffffffffffffffffff168373ffffffffffffffffffffffffffffffffffffffff16036104bc576040517f08c379a00000000000000000000000000000000000000000000000000000000081526004016104b390612b6a565b60405180910390fd5b60008083815260200190815260200160002060008473ffffffffffffffffffffffffffffffffffffffff1673ffffffffffffffffffffffffffffffffffffffff16815260200190815260200160002054905092915050565b60007fd9b67a26000000000000000000000000000000000000000000000000000000007bffffffffffffffffffffffffffffffffffffffffffffffffffffffff1916827bffffffffffffffffffffffffffffffffffffffffffffffffffffffff191614806105df57507f0e89341c000000000000000000000000000000000000000000000000000000007bffffffffffffffffffffffffffffffffffffffffffffffffffffffff1916827bffffffffffffffffffffffffffffffffffffffffffffffffffffffff1916145b806105ef57506105ee82611180565b5b9050919050565b6105fe6111ea565b81600460008154811061061457610613612b8a565b5b906000526020600020018190555080600460018154811061063857610637612b8a565b5b90600052602060002001819055505050565b60606002805461065990612be8565b80601f016020809104026020016040519081016040528092919081815260200182805461068590612be8565b80156106d25780601f106106a7576101008083540402835291602001916106d2565b820191906000526020600020905b8154815290600101906020018083116106b557829003601f168201915b50505050509050919050565b6106e6611268565b73ffffffffffffffffffffffffffffffffffffffff168573ffffffffffffffffffffffffffffffffffffffff16148061072c575061072b85610726611268565b610f1d565b5b61076b576040517f08c379a000000000000000000000000000000000000000000000000000000000815260040161076290612c8b565b60405180910390fd5b60006107ac576040517f08c379a00000000000000000000000000000000000000000000000000000000081526004016107a390612cf7565b60405180910390fd5b6107b98585858585611270565b5050505050565b600481815481106107d057600080fd5b906000526020600020016000915090505481565b6000600560003373ffffffffffffffffffffffffffffffffffffffff1673ffffffffffffffffffffffffffffffffffffffff168152602001908152602001600020541461085d576040517fd79e095f00000000000000000000000000000000000000000000000000000000815260040160405180910390fd5b600160075461086c9190612d46565b6007819055506001600560003373ffffffffffffffffffffffffffffffffffffffff1673ffffffffffffffffffffffffffffffffffffffff16815260200190815260200160002081905550565b60066020528060005260406000206000915090505481565b60608151835114610917576040517f08c379a000000000000000000000000000000000000000000000000000000000815260040161090e90612dec565b60405180910390fd5b6000835167ffffffffffffffff81111561093457610933612433565b5b6040519080825280602002602001820160405280156109625781602001602082028036833780820191505090505b50905060005b84518110156109df576109af85828151811061098757610986612b8a565b5b60200260200101518583815181106109a2576109a1612b8a565b5b602002602001015161044c565b8282815181106109c2576109c1612b8a565b5b602002602001018181525050806109d890612e0c565b9050610968565b508091505092915050565b6000600360009054906101000a900460ff16905090565b6000600560003373ffffffffffffffffffffffffffffffffffffffff1673ffffffffffffffffffffffffffffffffffffffff16815260200190815260200160002054610a4e33600161044c565b610a589190612e54565b905090565b610a656111ea565b610a6f6000611591565b565b600860009054906101000a900473ffffffffffffffffffffffffffffffffffffffff1681565b60075481565b6000600360019054906101000a900473ffffffffffffffffffffffffffffffffffffffff16905090565b610ad9610ad2611268565b8383611657565b5050565b610ae56117c3565b42600660003373ffffffffffffffffffffffffffffffffffffffff1673ffffffffffffffffffffffffffffffffffffffff168152602001908152602001600020541115610b5e576040517fbb76d8a500000000000000000000000000000000000000000000000000000000815260040160405180910390fd5b610b6942600161180d565b600660003373ffffffffffffffffffffffffffffffffffffffff1673ffffffffffffffffffffffffffffffffffffffff1681526020019081526020016000208190555060006004600081548110610bc357610bc2612b8a565b5b906000526020600020015490506000600560003373ffffffffffffffffffffffffffffffffffffffff1673ffffffffffffffffffffffffffffffffffffffff1681526020019081526020016000205414610c3a576004600181548110610c2c57610c2b612b8a565b5b906000526020600020015490505b600860009054906101000a900473ffffffffffffffffffffffffffffffffffffffff1673ffffffffffffffffffffffffffffffffffffffff1663a9059cbb33601884610c869190612e88565b6040518363ffffffff1660e01b8152600401610ca3929190612eca565b6020604051808303816000875af1158015610cc2573d6000803e3d6000fd5b505050506040513d601f19601f82011682018060405250810190610ce69190612f08565b5050565b610cf26111ea565b600860009054906101000a900473ffffffffffffffffffffffffffffffffffffffff1673ffffffffffffffffffffffffffffffffffffffff1663a9059cbb33600860009054906101000a900473ffffffffffffffffffffffffffffffffffffffff1673ffffffffffffffffffffffffffffffffffffffff166370a08231306040518263ffffffff1660e01b8152600401610d8c9190612951565b602060405180830381865afa158015610da9573d6000803e3d6000fd5b505050506040513d601f19601f82011682018060405250810190610dcd9190612f4a565b6040518363ffffffff1660e01b8152600401610dea929190612eca565b6020604051808303816000875af1158015610e09573d6000803e3d6000fd5b505050506040513d601f19601f82011682018060405250810190610e2d9190612f08565b50565b6000600560003373ffffffffffffffffffffffffffffffffffffffff1673ffffffffffffffffffffffffffffffffffffffff1681526020019081526020016000205403610ea9576040517fd273178700000000000000000000000000000000000000000000000000000000815260040160405180910390fd5b6001600754610eb89190612e54565b6007819055506000600560003373ffffffffffffffffffffffffffffffffffffffff1673ffffffffffffffffffffffffffffffffffffffff16815260200190815260200160002081905550565b60056020528060005260406000206000915090505481565b6000600160008473ffffffffffffffffffffffffffffffffffffffff1673ffffffffffffffffffffffffffffffffffffffff16815260200190815260200160002060008373ffffffffffffffffffffffffffffffffffffffff1673ffffffffffffffffffffffffffffffffffffffff16815260200190815260200160002060009054906101000a900460ff16905092915050565b610fb96111ea565b60005b815181101561100e57610ffb828281518110610fdb57610fda612b8a565b5b60200260200101516001806040518060200160405280600081525061183e565b808061100690612e0c565b915050610fbc565b5050565b61101a611268565b73ffffffffffffffffffffffffffffffffffffffff168573ffffffffffffffffffffffffffffffffffffffff161480611060575061105f8561105a611268565b610f1d565b5b61109f576040517f08c379a000000000000000000000000000000000000000000000000000000000815260040161109690612fe9565b60405180910390fd5b816110a8610a01565b10156110e9576040517f08c379a00000000000000000000000000000000000000000000000000000000081526004016110e09061307b565b60405180910390fd5b6110f685858585856119ee565b5050505050565b6111056111ea565b600073ffffffffffffffffffffffffffffffffffffffff168173ffffffffffffffffffffffffffffffffffffffff1603611174576040517f08c379a000000000000000000000000000000000000000000000000000000000815260040161116b9061310d565b60405180910390fd5b61117d81611591565b50565b60007f01ffc9a7000000000000000000000000000000000000000000000000000000007bffffffffffffffffffffffffffffffffffffffffffffffffffffffff1916827bffffffffffffffffffffffffffffffffffffffffffffffffffffffff1916149050919050565b6111f2611268565b73ffffffffffffffffffffffffffffffffffffffff16611210610a9d565b73ffffffffffffffffffffffffffffffffffffffff1614611266576040517f08c379a000000000000000000000000000000000000000000000000000000000815260040161125d90613179565b60405180910390fd5b565b600033905090565b81518351146112b4576040517f08c379a00000000000000000000000000000000000000000000000000000000081526004016112ab9061320b565b60405180910390fd5b600073ffffffffffffffffffffffffffffffffffffffff168473ffffffffffffffffffffffffffffffffffffffff1603611323576040517f08c379a000000000000000000000000000000000000000000000000000000000815260040161131a9061329d565b60405180910390fd5b600061132d611268565b905061133d818787878787611c89565b60005b84518110156114ee57600085828151811061135e5761135d612b8a565b5b60200260200101519050600085838151811061137d5761137c612b8a565b5b60200260200101519050600080600084815260200190815260200160002060008b73ffffffffffffffffffffffffffffffffffffffff1673ffffffffffffffffffffffffffffffffffffffff1681526020019081526020016000205490508181101561141e576040517f08c379a00000000000000000000000000000000000000000000000000000000081526004016114159061332f565b60405180910390fd5b81810360008085815260200190815260200160002060008c73ffffffffffffffffffffffffffffffffffffffff1673ffffffffffffffffffffffffffffffffffffffff168152602001908152602001600020819055508160008085815260200190815260200160002060008b73ffffffffffffffffffffffffffffffffffffffff1673ffffffffffffffffffffffffffffffffffffffff16815260200190815260200160002060008282546114d39190612d46565b92505081905550505050806114e790612e0c565b9050611340565b508473ffffffffffffffffffffffffffffffffffffffff168673ffffffffffffffffffffffffffffffffffffffff168273ffffffffffffffffffffffffffffffffffffffff167f4a39dc06d4c0dbc64b70af90fd698a233a518aa5d07e595d983b8c0526c8f7fb878760405161156592919061334f565b60405180910390a461157b818787878787611ce7565b611589818787878787611cef565b505050505050565b6000600360019054906101000a900473ffffffffffffffffffffffffffffffffffffffff16905081600360016101000a81548173ffffffffffffffffffffffffffffffffffffffff021916908373ffffffffffffffffffffffffffffffffffffffff1602179055508173ffffffffffffffffffffffffffffffffffffffff168173ffffffffffffffffffffffffffffffffffffffff167f8be0079c531659141344cd1fd0a4f28419497f9722a3daafe3b4186f6b6457e060405160405180910390a35050565b8173ffffffffffffffffffffffffffffffffffffffff168373ffffffffffffffffffffffffffffffffffffffff16036116c5576040517f08c379a00000000000000000000000000000000000000000000000000000000081526004016116bc906133f8565b60405180910390fd5b80600160008573ffffffffffffffffffffffffffffffffffffffff1673ffffffffffffffffffffffffffffffffffffffff16815260200190815260200160002060008473ffffffffffffffffffffffffffffffffffffffff1673ffffffffffffffffffffffffffffffffffffffff16815260200190815260200160002060006101000a81548160ff0219169083151502179055508173ffffffffffffffffffffffffffffffffffffffff168373ffffffffffffffffffffffffffffffffffffffff167f17307eab39ab6107e8899845ad3d59bd9653f200f220920489ca2b5937696c31836040516117b691906122f4565b60405180910390a3505050565b6117cb6109ea565b1561180b576040517f08c379a000000000000000000000000000000000000000000000000000000000815260040161180290613464565b60405180910390fd5b565b6000620151808261181e9190612e88565b836118299190612d46565b90508281101561183857600080fd5b92915050565b600073ffffffffffffffffffffffffffffffffffffffff168473ffffffffffffffffffffffffffffffffffffffff16036118ad576040517f08c379a00000000000000000000000000000000000000000000000000000000081526004016118a4906134f6565b60405180910390fd5b60006118b7611268565b905060006118c485611ec6565b905060006118d185611ec6565b90506118e283600089858589611c89565b8460008088815260200190815260200160002060008973ffffffffffffffffffffffffffffffffffffffff1673ffffffffffffffffffffffffffffffffffffffff16815260200190815260200160002060008282546119419190612d46565b925050819055508673ffffffffffffffffffffffffffffffffffffffff16600073ffffffffffffffffffffffffffffffffffffffff168473ffffffffffffffffffffffffffffffffffffffff167fc3d58168c5ae7397731d063d5bbf3d657854427343f4c083240f7aacaa2d0f6289896040516119bf929190613516565b60405180910390a46119d683600089858589611ce7565b6119e583600089898989611f40565b50505050505050565b600073ffffffffffffffffffffffffffffffffffffffff168473ffffffffffffffffffffffffffffffffffffffff1603611a5d576040517f08c379a0000000000000000000000000000000000000000000000000000000008152600401611a549061329d565b60405180910390fd5b6000611a67611268565b90506000611a7485611ec6565b90506000611a8185611ec6565b9050611a91838989858589611c89565b600080600088815260200190815260200160002060008a73ffffffffffffffffffffffffffffffffffffffff1673ffffffffffffffffffffffffffffffffffffffff16815260200190815260200160002054905085811015611b28576040517f08c379a0000000000000000000000000000000000000000000000000000000008152600401611b1f9061332f565b60405180910390fd5b85810360008089815260200190815260200160002060008b73ffffffffffffffffffffffffffffffffffffffff1673ffffffffffffffffffffffffffffffffffffffff168152602001908152602001600020819055508560008089815260200190815260200160002060008a73ffffffffffffffffffffffffffffffffffffffff1673ffffffffffffffffffffffffffffffffffffffff1681526020019081526020016000206000828254611bdd9190612d46565b925050819055508773ffffffffffffffffffffffffffffffffffffffff168973ffffffffffffffffffffffffffffffffffffffff168573ffffffffffffffffffffffffffffffffffffffff167fc3d58168c5ae7397731d063d5bbf3d657854427343f4c083240f7aacaa2d0f628a8a604051611c5a929190613516565b60405180910390a4611c70848a8a86868a611ce7565b611c7e848a8a8a8a8a611f40565b505050505050505050565b611c97868686868686612117565b611c9f6109ea565b15611cdf576040517f08c379a0000000000000000000000000000000000000000000000000000000008152600401611cd6906135b1565b60405180910390fd5b505050505050565b505050505050565b611d0e8473ffffffffffffffffffffffffffffffffffffffff1661211f565b15611ebe578373ffffffffffffffffffffffffffffffffffffffff1663bc197c8187878686866040518663ffffffff1660e01b8152600401611d54959493929190613626565b6020604051808303816000875af1925050508015611d9057506040513d601f19601f82011682018060405250810190611d8d91906136a3565b60015b611e3557611d9c6136dd565b806308c379a003611df85750611db06136ff565b80611dbb5750611dfa565b806040517f08c379a0000000000000000000000000000000000000000000000000000000008152600401611def919061240c565b60405180910390fd5b505b6040517f08c379a0000000000000000000000000000000000000000000000000000000008152600401611e2c90613801565b60405180910390fd5b63bc197c8160e01b7bffffffffffffffffffffffffffffffffffffffffffffffffffffffff1916817bffffffffffffffffffffffffffffffffffffffffffffffffffffffff191614611ebc576040517f08c379a0000000000000000000000000000000000000000000000000000000008152600401611eb390613893565b60405180910390fd5b505b505050505050565b60606000600167ffffffffffffffff811115611ee557611ee4612433565b5b604051908082528060200260200182016040528015611f135781602001602082028036833780820191505090505b5090508281600081518110611f2b57611f2a612b8a565b5b60200260200101818152505080915050919050565b611f5f8473ffffffffffffffffffffffffffffffffffffffff1661211f565b1561210f578373ffffffffffffffffffffffffffffffffffffffff1663f23a6e6187878686866040518663ffffffff1660e01b8152600401611fa59594939291906138b3565b6020604051808303816000875af1925050508015611fe157506040513d601f19601f82011682018060405250810190611fde91906136a3565b60015b61208657611fed6136dd565b806308c379a00361204957506120016136ff565b8061200c575061204b565b806040517f08c379a0000000000000000000000000000000000000000000000000000000008152600401612040919061240c565b60405180910390fd5b505b6040517f08c379a000000000000000000000000000000000000000000000000000000000815260040161207d90613801565b60405180910390fd5b63f23a6e6160e01b7bffffffffffffffffffffffffffffffffffffffffffffffffffffffff1916817bffffffffffffffffffffffffffffffffffffffffffffffffffffffff19161461210d576040517f08c379a000000000000000000000000000000000000000000000000000000000815260040161210490613893565b60405180910390fd5b505b505050505050565b505050505050565b6000808273ffffffffffffffffffffffffffffffffffffffff163b119050919050565b6000604051905090565b600080fd5b600080fd5b600073ffffffffffffffffffffffffffffffffffffffff82169050919050565b600061218182612156565b9050919050565b61219181612176565b811461219c57600080fd5b50565b6000813590506121ae81612188565b92915050565b6000819050919050565b6121c7816121b4565b81146121d257600080fd5b50565b6000813590506121e4816121be565b92915050565b600080604083850312156122015761220061214c565b5b600061220f8582860161219f565b9250506020612220858286016121d5565b9150509250929050565b612233816121b4565b82525050565b600060208201905061224e600083018461222a565b92915050565b60007fffffffff0000000000000000000000000000000000000000000000000000000082169050919050565b61228981612254565b811461229457600080fd5b50565b6000813590506122a681612280565b92915050565b6000602082840312156122c2576122c161214c565b5b60006122d084828501612297565b91505092915050565b60008115159050919050565b6122ee816122d9565b82525050565b600060208201905061230960008301846122e5565b92915050565b600080604083850312156123265761232561214c565b5b6000612334858286016121d5565b9250506020612345858286016121d5565b9150509250929050565b6000602082840312156123655761236461214c565b5b6000612373848285016121d5565b91505092915050565b600081519050919050565b600082825260208201905092915050565b60005b838110156123b657808201518184015260208101905061239b565b60008484015250505050565b6000601f19601f8301169050919050565b60006123de8261237c565b6123e88185612387565b93506123f8818560208601612398565b612401816123c2565b840191505092915050565b6000602082019050818103600083015261242681846123d3565b905092915050565b600080fd5b7f4e487b7100000000000000000000000000000000000000000000000000000000600052604160045260246000fd5b61246b826123c2565b810181811067ffffffffffffffff8211171561248a57612489612433565b5b80604052505050565b600061249d612142565b90506124a98282612462565b919050565b600067ffffffffffffffff8211156124c9576124c8612433565b5b602082029050602081019050919050565b600080fd5b60006124f26124ed846124ae565b612493565b90508083825260208201905060208402830185811115612515576125146124da565b5b835b8181101561253e578061252a88826121d5565b845260208401935050602081019050612517565b5050509392505050565b600082601f83011261255d5761255c61242e565b5b813561256d8482602086016124df565b91505092915050565b600080fd5b600067ffffffffffffffff82111561259657612595612433565b5b61259f826123c2565b9050602081019050919050565b82818337600083830152505050565b60006125ce6125c98461257b565b612493565b9050828152602081018484840111156125ea576125e9612576565b5b6125f58482856125ac565b509392505050565b600082601f8301126126125761261161242e565b5b81356126228482602086016125bb565b91505092915050565b600080600080600060a086880312156126475761264661214c565b5b60006126558882890161219f565b95505060206126668882890161219f565b945050604086013567ffffffffffffffff81111561268757612686612151565b5b61269388828901612548565b935050606086013567ffffffffffffffff8111156126b4576126b3612151565b5b6126c088828901612548565b925050608086013567ffffffffffffffff8111156126e1576126e0612151565b5b6126ed888289016125fd565b9150509295509295909350565b6000602082840312156127105761270f61214c565b5b600061271e8482850161219f565b91505092915050565b600067ffffffffffffffff82111561274257612741612433565b5b602082029050602081019050919050565b600061276661276184612727565b612493565b90508083825260208201905060208402830185811115612789576127886124da565b5b835b818110156127b2578061279e888261219f565b84526020840193505060208101905061278b565b5050509392505050565b600082601f8301126127d1576127d061242e565b5b81356127e1848260208601612753565b91505092915050565b600080604083850312156128015761280061214c565b5b600083013567ffffffffffffffff81111561281f5761281e612151565b5b61282b858286016127bc565b925050602083013567ffffffffffffffff81111561284c5761284b612151565b5b61285885828601612548565b9150509250929050565b600081519050919050565b600082825260208201905092915050565b6000819050602082019050919050565b612897816121b4565b82525050565b60006128a9838361288e565b60208301905092915050565b6000602082019050919050565b60006128cd82612862565b6128d7818561286d565b93506128e28361287e565b8060005b838110156129135781516128fa888261289d565b9750612905836128b5565b9250506001810190506128e6565b5085935050505092915050565b6000602082019050818103600083015261293a81846128c2565b905092915050565b61294b81612176565b82525050565b60006020820190506129666000830184612942565b92915050565b612975816122d9565b811461298057600080fd5b50565b6000813590506129928161296c565b92915050565b600080604083850312156129af576129ae61214c565b5b60006129bd8582860161219f565b92505060206129ce85828601612983565b9150509250929050565b600080604083850312156129ef576129ee61214c565b5b60006129fd8582860161219f565b9250506020612a0e8582860161219f565b9150509250929050565b600060208284031215612a2e57612a2d61214c565b5b600082013567ffffffffffffffff811115612a4c57612a4b612151565b5b612a58848285016127bc565b91505092915050565b600080600080600060a08688031215612a7d57612a7c61214c565b5b6000612a8b8882890161219f565b9550506020612a9c8882890161219f565b9450506040612aad888289016121d5565b9350506060612abe888289016121d5565b925050608086013567ffffffffffffffff811115612adf57612ade612151565b5b612aeb888289016125fd565b9150509295509295909350565b7f455243313135353a2061646472657373207a65726f206973206e6f742061207660008201527f616c6964206f776e657200000000000000000000000000000000000000000000602082015250565b6000612b54602a83612387565b9150612b5f82612af8565b604082019050919050565b60006020820190508181036000830152612b8381612b47565b9050919050565b7f4e487b7100000000000000000000000000000000000000000000000000000000600052603260045260246000fd5b7f4e487b7100000000000000000000000000000000000000000000000000000000600052602260045260246000fd5b60006002820490506001821680612c0057607f821691505b602082108103612c1357612c12612bb9565b5b50919050565b7f455243313135353a207472616e736665722063616c6c6572206973206e6f742060008201527f6f776e6572206e6f7220617070726f7665640000000000000000000000000000602082015250565b6000612c75603283612387565b9150612c8082612c19565b604082019050919050565b60006020820190508181036000830152612ca481612c68565b9050919050565b7f4261746368207472616e73666572206973206e6f7420616c6c6f776564000000600082015250565b6000612ce1601d83612387565b9150612cec82612cab565b602082019050919050565b60006020820190508181036000830152612d1081612cd4565b9050919050565b7f4e487b7100000000000000000000000000000000000000000000000000000000600052601160045260246000fd5b6000612d51826121b4565b9150612d5c836121b4565b9250828201905080821115612d7457612d73612d17565b5b92915050565b7f455243313135353a206163636f756e747320616e6420696473206c656e67746860008201527f206d69736d617463680000000000000000000000000000000000000000000000602082015250565b6000612dd6602983612387565b9150612de182612d7a565b604082019050919050565b60006020820190508181036000830152612e0581612dc9565b9050919050565b6000612e17826121b4565b91507fffffffffffffffffffffffffffffffffffffffffffffffffffffffffffffffff8203612e4957612e48612d17565b5b600182019050919050565b6000612e5f826121b4565b9150612e6a836121b4565b9250828203905081811115612e8257612e81612d17565b5b92915050565b6000612e93826121b4565b9150612e9e836121b4565b9250828202612eac816121b4565b91508282048414831517612ec357612ec2612d17565b5b5092915050565b6000604082019050612edf6000830185612942565b612eec602083018461222a565b9392505050565b600081519050612f028161296c565b92915050565b600060208284031215612f1e57612f1d61214c565b5b6000612f2c84828501612ef3565b91505092915050565b600081519050612f44816121be565b92915050565b600060208284031215612f6057612f5f61214c565b5b6000612f6e84828501612f35565b91505092915050565b7f455243313135353a2063616c6c6572206973206e6f74206f776e6572206e6f7260008201527f20617070726f7665640000000000000000000000000000000000000000000000602082015250565b6000612fd3602983612387565b9150612fde82612f77565b604082019050919050565b6000602082019050818103600083015261300281612fc6565b9050919050565b7f596f7520646f206e6f7420686176652074686973204e465420617661696c616260008201527f6c65000000000000000000000000000000000000000000000000000000000000602082015250565b6000613065602283612387565b915061307082613009565b604082019050919050565b6000602082019050818103600083015261309481613058565b9050919050565b7f4f776e61626c653a206e6577206f776e657220697320746865207a65726f206160008201527f6464726573730000000000000000000000000000000000000000000000000000602082015250565b60006130f7602683612387565b91506131028261309b565b604082019050919050565b60006020820190508181036000830152613126816130ea565b9050919050565b7f4f776e61626c653a2063616c6c6572206973206e6f7420746865206f776e6572600082015250565b6000613163602083612387565b915061316e8261312d565b602082019050919050565b6000602082019050818103600083015261319281613156565b9050919050565b7f455243313135353a2069647320616e6420616d6f756e7473206c656e6774682060008201527f6d69736d61746368000000000000000000000000000000000000000000000000602082015250565b60006131f5602883612387565b915061320082613199565b604082019050919050565b60006020820190508181036000830152613224816131e8565b9050919050565b7f455243313135353a207472616e7366657220746f20746865207a65726f20616460008201527f6472657373000000000000000000000000000000000000000000000000000000602082015250565b6000613287602583612387565b91506132928261322b565b604082019050919050565b600060208201905081810360008301526132b68161327a565b9050919050565b7f455243313135353a20696e73756666696369656e742062616c616e636520666f60008201527f72207472616e7366657200000000000000000000000000000000000000000000602082015250565b6000613319602a83612387565b9150613324826132bd565b604082019050919050565b600060208201905081810360008301526133488161330c565b9050919050565b6000604082019050818103600083015261336981856128c2565b9050818103602083015261337d81846128c2565b90509392505050565b7f455243313135353a2073657474696e6720617070726f76616c2073746174757360008201527f20666f722073656c660000000000000000000000000000000000000000000000602082015250565b60006133e2602983612387565b91506133ed82613386565b604082019050919050565b60006020820190508181036000830152613411816133d5565b9050919050565b7f5061757361626c653a2070617573656400000000000000000000000000000000600082015250565b600061344e601083612387565b915061345982613418565b602082019050919050565b6000602082019050818103600083015261347d81613441565b9050919050565b7f455243313135353a206d696e7420746f20746865207a65726f2061646472657360008201527f7300000000000000000000000000000000000000000000000000000000000000602082015250565b60006134e0602183612387565b91506134eb82613484565b604082019050919050565b6000602082019050818103600083015261350f816134d3565b9050919050565b600060408201905061352b600083018561222a565b613538602083018461222a565b9392505050565b7f455243313135355061757361626c653a20746f6b656e207472616e736665722060008201527f7768696c65207061757365640000000000000000000000000000000000000000602082015250565b600061359b602c83612387565b91506135a68261353f565b604082019050919050565b600060208201905081810360008301526135ca8161358e565b9050919050565b600081519050919050565b600082825260208201905092915050565b60006135f8826135d1565b61360281856135dc565b9350613612818560208601612398565b61361b816123c2565b840191505092915050565b600060a08201905061363b6000830188612942565b6136486020830187612942565b818103604083015261365a81866128c2565b9050818103606083015261366e81856128c2565b9050818103608083015261368281846135ed565b90509695505050505050565b60008151905061369d81612280565b92915050565b6000602082840312156136b9576136b861214c565b5b60006136c78482850161368e565b91505092915050565b60008160e01c9050919050565b600060033d11156136fc5760046000803e6136f96000516136d0565b90505b90565b600060443d1061378c57613711612142565b60043d036004823e80513d602482011167ffffffffffffffff8211171561373957505061378c565b808201805167ffffffffffffffff811115613757575050505061378c565b80602083010160043d03850181111561377457505050505061378c565b61378382602001850186612462565b82955050505050505b90565b7f455243313135353a207472616e7366657220746f206e6f6e2d4552433131353560008201527f526563656976657220696d706c656d656e746572000000000000000000000000602082015250565b60006137eb603483612387565b91506137f68261378f565b604082019050919050565b6000602082019050818103600083015261381a816137de565b9050919050565b7f455243313135353a204552433131353552656365697665722072656a6563746560008201527f6420746f6b656e73000000000000000000000000000000000000000000000000602082015250565b600061387d602883612387565b915061388882613821565b604082019050919050565b600060208201905081810360008301526138ac81613870565b9050919050565b600060a0820190506138c86000830188612942565b6138d56020830187612942565b6138e2604083018661222a565b6138ef606083018561222a565b818103608083015261390181846135ed565b9050969550505050505056fea2646970667358221220be9f678fdb07ba3d3dc65914ac11d00ac21be4eccf2668f5ae2588e790600fcb64736f6c63430008110033",
  "devdoc": {
    "kind": "dev",
    "methods": {
      "balanceOf(address,uint256)": {
        "details": "See {IERC1155-balanceOf}. Requirements: - `account` cannot be the zero address."
      },
      "balanceOfBatch(address[],uint256[])": {
        "details": "See {IERC1155-balanceOfBatch}. Requirements: - `accounts` and `ids` must have the same length."
      },
      "isApprovedForAll(address,address)": {
        "details": "See {IERC1155-isApprovedForAll}."
      },
      "owner()": {
        "details": "Returns the address of the current owner."
      },
      "paused()": {
        "details": "Returns true if the contract is paused, and false otherwise."
      },
      "renounceOwnership()": {
        "details": "Leaves the contract without owner. It will not be possible to call `onlyOwner` functions anymore. Can only be called by the current owner. NOTE: Renouncing ownership will leave the contract without an owner, thereby removing any functionality that is only available to the owner."
      },
      "safeBatchTransferFrom(address,address,uint256[],uint256[],bytes)": {
        "details": "See {IERC1155-safeBatchTransferFrom}."
      },
      "safeTransferFrom(address,address,uint256,uint256,bytes)": {
        "details": "See {IERC1155-safeTransferFrom}."
      },
      "setApprovalForAll(address,bool)": {
        "details": "See {IERC1155-setApprovalForAll}."
      },
      "supportsInterface(bytes4)": {
        "details": "See {IERC165-supportsInterface}."
      },
      "transferOwnership(address)": {
        "details": "Transfers ownership of the contract to a new account (`newOwner`). Can only be called by the current owner."
      },
      "uri(uint256)": {
        "details": "See {IERC1155MetadataURI-uri}. This implementation returns the same URI for *all* token types. It relies on the token type ID substitution mechanism https://eips.ethereum.org/EIPS/eip-1155#metadata[defined in the EIP]. Clients calling this function must replace the `\\{id\\}` substring with the actual token type ID."
      }
    },
    "version": 1
  },
  "userdoc": {
    "kind": "user",
    "methods": {},
    "version": 1
  },
  "storageLayout": {
    "storage": [
      {
        "astId": 249,
        "contract": "contracts/BabyMonster.sol:BabyMonster",
        "label": "_balances",
        "offset": 0,
        "slot": "0",
        "type": "t_mapping(t_uint256,t_mapping(t_address,t_uint256))"
      },
      {
        "astId": 255,
        "contract": "contracts/BabyMonster.sol:BabyMonster",
        "label": "_operatorApprovals",
        "offset": 0,
        "slot": "1",
        "type": "t_mapping(t_address,t_mapping(t_address,t_bool))"
      },
      {
        "astId": 257,
        "contract": "contracts/BabyMonster.sol:BabyMonster",
        "label": "_uri",
        "offset": 0,
        "slot": "2",
        "type": "t_string_storage"
      },
      {
        "astId": 133,
        "contract": "contracts/BabyMonster.sol:BabyMonster",
        "label": "_paused",
        "offset": 0,
        "slot": "3",
        "type": "t_bool"
      },
      {
        "astId": 7,
        "contract": "contracts/BabyMonster.sol:BabyMonster",
        "label": "_owner",
        "offset": 1,
        "slot": "3",
        "type": "t_address"
      },
      {
        "astId": 4266,
        "contract": "contracts/BabyMonster.sol:BabyMonster",
        "label": "_faucetAmount",
        "offset": 0,
        "slot": "4",
        "type": "t_array(t_uint256)dyn_storage"
      },
      {
        "astId": 4270,
        "contract": "contracts/BabyMonster.sol:BabyMonster",
        "label": "_stacking",
        "offset": 0,
        "slot": "5",
        "type": "t_mapping(t_address,t_uint256)"
      },
      {
        "astId": 4274,
        "contract": "contracts/BabyMonster.sol:BabyMonster",
        "label": "_NextAvailableFaucet",
        "offset": 0,
        "slot": "6",
        "type": "t_mapping(t_address,t_uint256)"
      },
      {
        "astId": 4276,
        "contract": "contracts/BabyMonster.sol:BabyMonster",
        "label": "_totalStacked",
        "offset": 0,
        "slot": "7",
        "type": "t_uint256"
      },
      {
        "astId": 4278,
        "contract": "contracts/BabyMonster.sol:BabyMonster",
        "label": "_MSTTokenAddress",
        "offset": 0,
        "slot": "8",
        "type": "t_address"
      }
    ],
    "types": {
      "t_address": {
        "encoding": "inplace",
        "label": "address",
        "numberOfBytes": "20"
      },
      "t_array(t_uint256)dyn_storage": {
        "base": "t_uint256",
        "encoding": "dynamic_array",
        "label": "uint256[]",
        "numberOfBytes": "32"
      },
      "t_bool": {
        "encoding": "inplace",
        "label": "bool",
        "numberOfBytes": "1"
      },
      "t_mapping(t_address,t_bool)": {
        "encoding": "mapping",
        "key": "t_address",
        "label": "mapping(address => bool)",
        "numberOfBytes": "32",
        "value": "t_bool"
      },
      "t_mapping(t_address,t_mapping(t_address,t_bool))": {
        "encoding": "mapping",
        "key": "t_address",
        "label": "mapping(address => mapping(address => bool))",
        "numberOfBytes": "32",
        "value": "t_mapping(t_address,t_bool)"
      },
      "t_mapping(t_address,t_uint256)": {
        "encoding": "mapping",
        "key": "t_address",
        "label": "mapping(address => uint256)",
        "numberOfBytes": "32",
        "value": "t_uint256"
      },
      "t_mapping(t_uint256,t_mapping(t_address,t_uint256))": {
        "encoding": "mapping",
        "key": "t_uint256",
        "label": "mapping(uint256 => mapping(address => uint256))",
        "numberOfBytes": "32",
        "value": "t_mapping(t_address,t_uint256)"
      },
      "t_string_storage": {
        "encoding": "bytes",
        "label": "string",
        "numberOfBytes": "32"
      },
      "t_uint256": {
        "encoding": "inplace",
        "label": "uint256",
        "numberOfBytes": "32"
      }
    }
  }
}