{
  "address": "0x3643733E81f8d8810cDC6685f8612a203b9763f6",
  "abi": [
    {
      "inputs": [
        {
          "internalType": "string",
          "name": "baseURI",
          "type": "string"
        },
        {
          "internalType": "address",
          "name": "mstTokenAddress",
          "type": "address"
        }
      ],
      "stateMutability": "nonpayable",
      "type": "constructor"
    },
    {
      "inputs": [],
      "name": "AlreadyStacked",
      "type": "error"
    },
    {
      "inputs": [],
      "name": "NotStacked",
      "type": "error"
    },
    {
      "inputs": [],
      "name": "TimeLock",
      "type": "error"
    },
    {
      "anonymous": false,
      "inputs": [
        {
          "indexed": true,
          "internalType": "address",
          "name": "account",
          "type": "address"
        },
        {
          "indexed": true,
          "internalType": "address",
          "name": "operator",
          "type": "address"
        },
        {
          "indexed": false,
          "internalType": "bool",
          "name": "approved",
          "type": "bool"
        }
      ],
      "name": "ApprovalForAll",
      "type": "event"
    },
    {
      "anonymous": false,
      "inputs": [
        {
          "indexed": true,
          "internalType": "address",
          "name": "previousOwner",
          "type": "address"
        },
        {
          "indexed": true,
          "internalType": "address",
          "name": "newOwner",
          "type": "address"
        }
      ],
      "name": "OwnershipTransferred",
      "type": "event"
    },
    {
      "anonymous": false,
      "inputs": [
        {
          "indexed": false,
          "internalType": "address",
          "name": "account",
          "type": "address"
        }
      ],
      "name": "Paused",
      "type": "event"
    },
    {
      "anonymous": false,
      "inputs": [
        {
          "indexed": true,
          "internalType": "address",
          "name": "operator",
          "type": "address"
        },
        {
          "indexed": true,
          "internalType": "address",
          "name": "from",
          "type": "address"
        },
        {
          "indexed": true,
          "internalType": "address",
          "name": "to",
          "type": "address"
        },
        {
          "indexed": false,
          "internalType": "uint256[]",
          "name": "ids",
          "type": "uint256[]"
        },
        {
          "indexed": false,
          "internalType": "uint256[]",
          "name": "values",
          "type": "uint256[]"
        }
      ],
      "name": "TransferBatch",
      "type": "event"
    },
    {
      "anonymous": false,
      "inputs": [
        {
          "indexed": true,
          "internalType": "address",
          "name": "operator",
          "type": "address"
        },
        {
          "indexed": true,
          "internalType": "address",
          "name": "from",
          "type": "address"
        },
        {
          "indexed": true,
          "internalType": "address",
          "name": "to",
          "type": "address"
        },
        {
          "indexed": false,
          "internalType": "uint256",
          "name": "id",
          "type": "uint256"
        },
        {
          "indexed": false,
          "internalType": "uint256",
          "name": "value",
          "type": "uint256"
        }
      ],
      "name": "TransferSingle",
      "type": "event"
    },
    {
      "anonymous": false,
      "inputs": [
        {
          "indexed": false,
          "internalType": "string",
          "name": "value",
          "type": "string"
        },
        {
          "indexed": true,
          "internalType": "uint256",
          "name": "id",
          "type": "uint256"
        }
      ],
      "name": "URI",
      "type": "event"
    },
    {
      "anonymous": false,
      "inputs": [
        {
          "indexed": false,
          "internalType": "address",
          "name": "account",
          "type": "address"
        }
      ],
      "name": "Unpaused",
      "type": "event"
    },
    {
      "inputs": [
        {
          "internalType": "address[]",
          "name": "targetAirdropAddresses",
          "type": "address[]"
        }
      ],
      "name": "Airdrop",
      "outputs": [],
      "stateMutability": "nonpayable",
      "type": "function"
    },
    {
      "inputs": [],
      "name": "GetAvailableTokenCount",
      "outputs": [
        {
          "internalType": "uint256",
          "name": "",
          "type": "uint256"
        }
      ],
      "stateMutability": "view",
      "type": "function"
    },
    {
      "inputs": [],
      "name": "GetFaucet",
      "outputs": [],
      "stateMutability": "nonpayable",
      "type": "function"
    },
    {
      "inputs": [],
      "name": "Stack",
      "outputs": [],
      "stateMutability": "nonpayable",
      "type": "function"
    },
    {
      "inputs": [],
      "name": "Unstack",
      "outputs": [],
      "stateMutability": "nonpayable",
      "type": "function"
    },
    {
      "inputs": [],
      "name": "WithdrawalTokens",
      "outputs": [],
      "stateMutability": "nonpayable",
      "type": "function"
    },
    {
      "inputs": [],
      "name": "_MSTTokenAddress",
      "outputs": [
        {
          "internalType": "address",
          "name": "",
          "type": "address"
        }
      ],
      "stateMutability": "view",
      "type": "function"
    },
    {
      "inputs": [
        {
          "internalType": "address",
          "name": "",
          "type": "address"
        }
      ],
      "name": "_NextAvailableFaucet",
      "outputs": [
        {
          "internalType": "uint256",
          "name": "",
          "type": "uint256"
        }
      ],
      "stateMutability": "view",
      "type": "function"
    },
    {
      "inputs": [
        {
          "internalType": "uint256",
          "name": "",
          "type": "uint256"
        }
      ],
      "name": "_faucetAmount",
      "outputs": [
        {
          "internalType": "uint256",
          "name": "",
          "type": "uint256"
        }
      ],
      "stateMutability": "view",
      "type": "function"
    },
    {
      "inputs": [
        {
          "internalType": "address",
          "name": "",
          "type": "address"
        }
      ],
      "name": "_stacking",
      "outputs": [
        {
          "internalType": "uint256",
          "name": "",
          "type": "uint256"
        }
      ],
      "stateMutability": "view",
      "type": "function"
    },
    {
      "inputs": [],
      "name": "_totalStacked",
      "outputs": [
        {
          "internalType": "uint256",
          "name": "",
          "type": "uint256"
        }
      ],
      "stateMutability": "view",
      "type": "function"
    },
    {
      "inputs": [
        {
          "internalType": "address",
          "name": "account",
          "type": "address"
        },
        {
          "internalType": "uint256",
          "name": "id",
          "type": "uint256"
        }
      ],
      "name": "balanceOf",
      "outputs": [
        {
          "internalType": "uint256",
          "name": "",
          "type": "uint256"
        }
      ],
      "stateMutability": "view",
      "type": "function"
    },
    {
      "inputs": [
        {
          "internalType": "address[]",
          "name": "accounts",
          "type": "address[]"
        },
        {
          "internalType": "uint256[]",
          "name": "ids",
          "type": "uint256[]"
        }
      ],
      "name": "balanceOfBatch",
      "outputs": [
        {
          "internalType": "uint256[]",
          "name": "",
          "type": "uint256[]"
        }
      ],
      "stateMutability": "view",
      "type": "function"
    },
    {
      "inputs": [
        {
          "internalType": "address",
          "name": "account",
          "type": "address"
        },
        {
          "internalType": "address",
          "name": "operator",
          "type": "address"
        }
      ],
      "name": "isApprovedForAll",
      "outputs": [
        {
          "internalType": "bool",
          "name": "",
          "type": "bool"
        }
      ],
      "stateMutability": "view",
      "type": "function"
    },
    {
      "inputs": [],
      "name": "owner",
      "outputs": [
        {
          "internalType": "address",
          "name": "",
          "type": "address"
        }
      ],
      "stateMutability": "view",
      "type": "function"
    },
    {
      "inputs": [],
      "name": "paused",
      "outputs": [
        {
          "internalType": "bool",
          "name": "",
          "type": "bool"
        }
      ],
      "stateMutability": "view",
      "type": "function"
    },
    {
      "inputs": [],
      "name": "renounceOwnership",
      "outputs": [],
      "stateMutability": "nonpayable",
      "type": "function"
    },
    {
      "inputs": [
        {
          "internalType": "address",
          "name": "from",
          "type": "address"
        },
        {
          "internalType": "address",
          "name": "to",
          "type": "address"
        },
        {
          "internalType": "uint256[]",
          "name": "ids",
          "type": "uint256[]"
        },
        {
          "internalType": "uint256[]",
          "name": "amounts",
          "type": "uint256[]"
        },
        {
          "internalType": "bytes",
          "name": "data",
          "type": "bytes"
        }
      ],
      "name": "safeBatchTransferFrom",
      "outputs": [],
      "stateMutability": "nonpayable",
      "type": "function"
    },
    {
      "inputs": [
        {
          "internalType": "address",
          "name": "from",
          "type": "address"
        },
        {
          "internalType": "address",
          "name": "to",
          "type": "address"
        },
        {
          "internalType": "uint256",
          "name": "id",
          "type": "uint256"
        },
        {
          "internalType": "uint256",
          "name": "amount",
          "type": "uint256"
        },
        {
          "internalType": "bytes",
          "name": "data",
          "type": "bytes"
        }
      ],
      "name": "safeTransferFrom",
      "outputs": [],
      "stateMutability": "nonpayable",
      "type": "function"
    },
    {
      "inputs": [
        {
          "internalType": "address",
          "name": "operator",
          "type": "address"
        },
        {
          "internalType": "bool",
          "name": "approved",
          "type": "bool"
        }
      ],
      "name": "setApprovalForAll",
      "outputs": [],
      "stateMutability": "nonpayable",
      "type": "function"
    },
    {
      "inputs": [
        {
          "internalType": "bytes4",
          "name": "interfaceId",
          "type": "bytes4"
        }
      ],
      "name": "supportsInterface",
      "outputs": [
        {
          "internalType": "bool",
          "name": "",
          "type": "bool"
        }
      ],
      "stateMutability": "view",
      "type": "function"
    },
    {
      "inputs": [
        {
          "internalType": "address",
          "name": "newOwner",
          "type": "address"
        }
      ],
      "name": "transferOwnership",
      "outputs": [],
      "stateMutability": "nonpayable",
      "type": "function"
    },
    {
      "inputs": [
        {
          "internalType": "uint256",
          "name": "withoutStacking",
          "type": "uint256"
        },
        {
          "internalType": "uint256",
          "name": "withStacking",
          "type": "uint256"
        }
      ],
      "name": "updateFaucetAmount",
      "outputs": [],
      "stateMutability": "nonpayable",
      "type": "function"
    },
    {
      "inputs": [
        {
          "internalType": "uint256",
          "name": "",
          "type": "uint256"
        }
      ],
      "name": "uri",
      "outputs": [
        {
          "internalType": "string",
          "name": "",
          "type": "string"
        }
      ],
      "stateMutability": "view",
      "type": "function"
    }
  ],
  "transactionHash": "0x4064cc7cbf56ce1e1b5d7c1a3d5c1bda6ac7debbf5be7bb76b3f4344835adba2",
  "args": [
    "",
    "0x41C1660267ABE974Cb889bFD41829d4E1313d675"
  ],
  "numDeployments": 2,
  "solcInputHash": "caa87fcd552ec7e4bf2845cf65192866",
  "bytecode": "0x60806040523480156200001157600080fd5b50604051620040ef380380620040ef8339818101604052810190620000379190620003fd565b8162000049816200012260201b60201c565b506000600360006101000a81548160ff02191690831515021790555062000085620000796200013760201b60201c565b6200013f60201b60201c565b60046001908060018154018082558091505060019003906000526020600020016000909190919091505560046032908060018154018082558091505060019003906000526020600020016000909190919091505580600860006101000a81548173ffffffffffffffffffffffffffffffffffffffff021916908373ffffffffffffffffffffffffffffffffffffffff160217905550505062000795565b8060029081620001339190620006ae565b5050565b600033905090565b6000600360019054906101000a900473ffffffffffffffffffffffffffffffffffffffff16905081600360016101000a81548173ffffffffffffffffffffffffffffffffffffffff021916908373ffffffffffffffffffffffffffffffffffffffff1602179055508173ffffffffffffffffffffffffffffffffffffffff168173ffffffffffffffffffffffffffffffffffffffff167f8be0079c531659141344cd1fd0a4f28419497f9722a3daafe3b4186f6b6457e060405160405180910390a35050565b6000604051905090565b600080fd5b600080fd5b600080fd5b600080fd5b6000601f19601f8301169050919050565b7f4e487b7100000000000000000000000000000000000000000000000000000000600052604160045260246000fd5b6200026e8262000223565b810181811067ffffffffffffffff8211171562000290576200028f62000234565b5b80604052505050565b6000620002a562000205565b9050620002b3828262000263565b919050565b600067ffffffffffffffff821115620002d657620002d562000234565b5b620002e18262000223565b9050602081019050919050565b60005b838110156200030e578082015181840152602081019050620002f1565b60008484015250505050565b6000620003316200032b84620002b8565b62000299565b90508281526020810184848401111562000350576200034f6200021e565b5b6200035d848285620002ee565b509392505050565b600082601f8301126200037d576200037c62000219565b5b81516200038f8482602086016200031a565b91505092915050565b600073ffffffffffffffffffffffffffffffffffffffff82169050919050565b6000620003c58262000398565b9050919050565b620003d781620003b8565b8114620003e357600080fd5b50565b600081519050620003f781620003cc565b92915050565b600080604083850312156200041757620004166200020f565b5b600083015167ffffffffffffffff81111562000438576200043762000214565b5b620004468582860162000365565b92505060206200045985828601620003e6565b9150509250929050565b600081519050919050565b7f4e487b7100000000000000000000000000000000000000000000000000000000600052602260045260246000fd5b60006002820490506001821680620004b657607f821691505b602082108103620004cc57620004cb6200046e565b5b50919050565b60008190508160005260206000209050919050565b60006020601f8301049050919050565b600082821b905092915050565b600060088302620005367fffffffffffffffffffffffffffffffffffffffffffffffffffffffffffffffff82620004f7565b620005428683620004f7565b95508019841693508086168417925050509392505050565b6000819050919050565b6000819050919050565b60006200058f6200058962000583846200055a565b62000564565b6200055a565b9050919050565b6000819050919050565b620005ab836200056e565b620005c3620005ba8262000596565b84845462000504565b825550505050565b600090565b620005da620005cb565b620005e7818484620005a0565b505050565b5b818110156200060f5762000603600082620005d0565b600181019050620005ed565b5050565b601f8211156200065e576200062881620004d2565b6200063384620004e7565b8101602085101562000643578190505b6200065b6200065285620004e7565b830182620005ec565b50505b505050565b600082821c905092915050565b6000620006836000198460080262000663565b1980831691505092915050565b60006200069e838362000670565b9150826002028217905092915050565b620006b98262000463565b67ffffffffffffffff811115620006d557620006d462000234565b5b620006e182546200049d565b620006ee82828562000613565b600060209050601f83116001811462000726576000841562000711578287015190505b6200071d858262000690565b8655506200078d565b601f1984166200073686620004d2565b60005b82811015620007605784890151825560018201915060208501945060208101905062000739565b868310156200078057848901516200077c601f89168262000670565b8355505b6001600288020188555050505b505050505050565b61394a80620007a56000396000f3fe608060405234801561001057600080fd5b50600436106101575760003560e01c806379aae48c116100c3578063c3ff67a61161007c578063c3ff67a61461038e578063d812784e14610398578063e985e9c5146103c8578063ece8c31c146103f8578063f242432a14610414578063f2fde38b1461043057610157565b806379aae48c146103045780637d9854af146103225780638da5cb5b14610340578063a22cb4651461035e578063a797ca501461037a578063ac92cbae1461038457610157565b80633e2780cb116101155780633e2780cb146102545780634261dc3e1461025e5780634e1273f41461028e5780635c975abb146102be5780635f9bf2ad146102dc578063715018a6146102fa57610157565b8062fdd58e1461015c57806301ffc9a71461018c57806302607b19146101bc5780630e89341c146101d85780632eb2c2d6146102085780633280053c14610224575b600080fd5b610176600480360381019061017191906121f1565b61044c565b6040516101839190612240565b60405180910390f35b6101a660048036038101906101a191906122b3565b610514565b6040516101b391906122fb565b60405180910390f35b6101d660048036038101906101d19190612316565b6105f6565b005b6101f260048036038101906101ed9190612356565b61064a565b6040516101ff9190612413565b60405180910390f35b610222600480360381019061021d9190612632565b6106de565b005b61023e60048036038101906102399190612356565b6107c0565b60405161024b9190612240565b60405180910390f35b61025c6107e4565b005b61027860048036038101906102739190612701565b6108b9565b6040516102859190612240565b60405180910390f35b6102a860048036038101906102a391906127f1565b6108d1565b6040516102b59190612927565b60405180910390f35b6102c66109ea565b6040516102d391906122fb565b60405180910390f35b6102e4610a01565b6040516102f19190612240565b60405180910390f35b610302610a5d565b005b61030c610a71565b6040516103199190612958565b60405180910390f35b61032a610a97565b6040516103379190612240565b60405180910390f35b610348610a9d565b6040516103559190612958565b60405180910390f35b6103786004803603810190610373919061299f565b610ac7565b005b610382610add565b005b61038c610cf1565b005b610396610e37565b005b6103b260048036038101906103ad9190612701565b610f0c565b6040516103bf9190612240565b60405180910390f35b6103e260048036038101906103dd91906129df565b610f24565b6040516103ef91906122fb565b60405180910390f35b610412600480360381019061040d9190612a1f565b610fb8565b005b61042e60048036038101906104299190612a68565b611019565b005b61044a60048036038101906104459190612701565b611104565b005b60008073ffffffffffffffffffffffffffffffffffffffff168373ffffffffffffffffffffffffffffffffffffffff16036104bc576040517f08c379a00000000000000000000000000000000000000000000000000000000081526004016104b390612b71565b60405180910390fd5b60008083815260200190815260200160002060008473ffffffffffffffffffffffffffffffffffffffff1673ffffffffffffffffffffffffffffffffffffffff16815260200190815260200160002054905092915050565b60007fd9b67a26000000000000000000000000000000000000000000000000000000007bffffffffffffffffffffffffffffffffffffffffffffffffffffffff1916827bffffffffffffffffffffffffffffffffffffffffffffffffffffffff191614806105df57507f0e89341c000000000000000000000000000000000000000000000000000000007bffffffffffffffffffffffffffffffffffffffffffffffffffffffff1916827bffffffffffffffffffffffffffffffffffffffffffffffffffffffff1916145b806105ef57506105ee82611187565b5b9050919050565b6105fe6111f1565b81600460008154811061061457610613612b91565b5b906000526020600020018190555080600460018154811061063857610637612b91565b5b90600052602060002001819055505050565b60606002805461065990612bef565b80601f016020809104026020016040519081016040528092919081815260200182805461068590612bef565b80156106d25780601f106106a7576101008083540402835291602001916106d2565b820191906000526020600020905b8154815290600101906020018083116106b557829003601f168201915b50505050509050919050565b6106e661126f565b73ffffffffffffffffffffffffffffffffffffffff168573ffffffffffffffffffffffffffffffffffffffff16148061072c575061072b8561072661126f565b610f24565b5b61076b576040517f08c379a000000000000000000000000000000000000000000000000000000000815260040161076290612c92565b60405180910390fd5b60006107ac576040517f08c379a00000000000000000000000000000000000000000000000000000000081526004016107a390612cfe565b60405180910390fd5b6107b98585858585611277565b5050505050565b600481815481106107d057600080fd5b906000526020600020016000915090505481565b6000600560003373ffffffffffffffffffffffffffffffffffffffff1673ffffffffffffffffffffffffffffffffffffffff168152602001908152602001600020541461085d576040517fd79e095f00000000000000000000000000000000000000000000000000000000815260040160405180910390fd5b600160075461086c9190612d4d565b6007819055506001600560003373ffffffffffffffffffffffffffffffffffffffff1673ffffffffffffffffffffffffffffffffffffffff16815260200190815260200160002081905550565b60066020528060005260406000206000915090505481565b60608151835114610917576040517f08c379a000000000000000000000000000000000000000000000000000000000815260040161090e90612df3565b60405180910390fd5b6000835167ffffffffffffffff8111156109345761093361243a565b5b6040519080825280602002602001820160405280156109625781602001602082028036833780820191505090505b50905060005b84518110156109df576109af85828151811061098757610986612b91565b5b60200260200101518583815181106109a2576109a1612b91565b5b602002602001015161044c565b8282815181106109c2576109c1612b91565b5b602002602001018181525050806109d890612e13565b9050610968565b508091505092915050565b6000600360009054906101000a900460ff16905090565b6000600560003373ffffffffffffffffffffffffffffffffffffffff1673ffffffffffffffffffffffffffffffffffffffff16815260200190815260200160002054610a4e33600161044c565b610a589190612e5b565b905090565b610a656111f1565b610a6f6000611598565b565b600860009054906101000a900473ffffffffffffffffffffffffffffffffffffffff1681565b60075481565b6000600360019054906101000a900473ffffffffffffffffffffffffffffffffffffffff16905090565b610ad9610ad261126f565b838361165e565b5050565b610ae56117ca565b42600660003373ffffffffffffffffffffffffffffffffffffffff1673ffffffffffffffffffffffffffffffffffffffff168152602001908152602001600020541115610b5e576040517fbb76d8a500000000000000000000000000000000000000000000000000000000815260040160405180910390fd5b610b69426001611814565b600660003373ffffffffffffffffffffffffffffffffffffffff1673ffffffffffffffffffffffffffffffffffffffff1681526020019081526020016000208190555060006004600081548110610bc357610bc2612b91565b5b906000526020600020015490506000600560003373ffffffffffffffffffffffffffffffffffffffff1673ffffffffffffffffffffffffffffffffffffffff1681526020019081526020016000205414610c3a576004600181548110610c2c57610c2b612b91565b5b906000526020600020015490505b600860009054906101000a900473ffffffffffffffffffffffffffffffffffffffff1673ffffffffffffffffffffffffffffffffffffffff1663a9059cbb33670de0b6b3a764000084610c8d9190612e8f565b6040518363ffffffff1660e01b8152600401610caa929190612ed1565b6020604051808303816000875af1158015610cc9573d6000803e3d6000fd5b505050506040513d601f19601f82011682018060405250810190610ced9190612f0f565b5050565b610cf96111f1565b600860009054906101000a900473ffffffffffffffffffffffffffffffffffffffff1673ffffffffffffffffffffffffffffffffffffffff1663a9059cbb33600860009054906101000a900473ffffffffffffffffffffffffffffffffffffffff1673ffffffffffffffffffffffffffffffffffffffff166370a08231306040518263ffffffff1660e01b8152600401610d939190612958565b602060405180830381865afa158015610db0573d6000803e3d6000fd5b505050506040513d601f19601f82011682018060405250810190610dd49190612f51565b6040518363ffffffff1660e01b8152600401610df1929190612ed1565b6020604051808303816000875af1158015610e10573d6000803e3d6000fd5b505050506040513d601f19601f82011682018060405250810190610e349190612f0f565b50565b6000600560003373ffffffffffffffffffffffffffffffffffffffff1673ffffffffffffffffffffffffffffffffffffffff1681526020019081526020016000205403610eb0576040517fd273178700000000000000000000000000000000000000000000000000000000815260040160405180910390fd5b6001600754610ebf9190612e5b565b6007819055506000600560003373ffffffffffffffffffffffffffffffffffffffff1673ffffffffffffffffffffffffffffffffffffffff16815260200190815260200160002081905550565b60056020528060005260406000206000915090505481565b6000600160008473ffffffffffffffffffffffffffffffffffffffff1673ffffffffffffffffffffffffffffffffffffffff16815260200190815260200160002060008373ffffffffffffffffffffffffffffffffffffffff1673ffffffffffffffffffffffffffffffffffffffff16815260200190815260200160002060009054906101000a900460ff16905092915050565b610fc06111f1565b60005b815181101561101557611002828281518110610fe257610fe1612b91565b5b602002602001015160018060405180602001604052806000815250611845565b808061100d90612e13565b915050610fc3565b5050565b61102161126f565b73ffffffffffffffffffffffffffffffffffffffff168573ffffffffffffffffffffffffffffffffffffffff16148061106757506110668561106161126f565b610f24565b5b6110a6576040517f08c379a000000000000000000000000000000000000000000000000000000000815260040161109d90612ff0565b60405180910390fd5b816110af610a01565b10156110f0576040517f08c379a00000000000000000000000000000000000000000000000000000000081526004016110e790613082565b60405180910390fd5b6110fd85858585856119f5565b5050505050565b61110c6111f1565b600073ffffffffffffffffffffffffffffffffffffffff168173ffffffffffffffffffffffffffffffffffffffff160361117b576040517f08c379a000000000000000000000000000000000000000000000000000000000815260040161117290613114565b60405180910390fd5b61118481611598565b50565b60007f01ffc9a7000000000000000000000000000000000000000000000000000000007bffffffffffffffffffffffffffffffffffffffffffffffffffffffff1916827bffffffffffffffffffffffffffffffffffffffffffffffffffffffff1916149050919050565b6111f961126f565b73ffffffffffffffffffffffffffffffffffffffff16611217610a9d565b73ffffffffffffffffffffffffffffffffffffffff161461126d576040517f08c379a000000000000000000000000000000000000000000000000000000000815260040161126490613180565b60405180910390fd5b565b600033905090565b81518351146112bb576040517f08c379a00000000000000000000000000000000000000000000000000000000081526004016112b290613212565b60405180910390fd5b600073ffffffffffffffffffffffffffffffffffffffff168473ffffffffffffffffffffffffffffffffffffffff160361132a576040517f08c379a0000000000000000000000000000000000000000000000000000000008152600401611321906132a4565b60405180910390fd5b600061133461126f565b9050611344818787878787611c90565b60005b84518110156114f557600085828151811061136557611364612b91565b5b60200260200101519050600085838151811061138457611383612b91565b5b60200260200101519050600080600084815260200190815260200160002060008b73ffffffffffffffffffffffffffffffffffffffff1673ffffffffffffffffffffffffffffffffffffffff16815260200190815260200160002054905081811015611425576040517f08c379a000000000000000000000000000000000000000000000000000000000815260040161141c90613336565b60405180910390fd5b81810360008085815260200190815260200160002060008c73ffffffffffffffffffffffffffffffffffffffff1673ffffffffffffffffffffffffffffffffffffffff168152602001908152602001600020819055508160008085815260200190815260200160002060008b73ffffffffffffffffffffffffffffffffffffffff1673ffffffffffffffffffffffffffffffffffffffff16815260200190815260200160002060008282546114da9190612d4d565b92505081905550505050806114ee90612e13565b9050611347565b508473ffffffffffffffffffffffffffffffffffffffff168673ffffffffffffffffffffffffffffffffffffffff168273ffffffffffffffffffffffffffffffffffffffff167f4a39dc06d4c0dbc64b70af90fd698a233a518aa5d07e595d983b8c0526c8f7fb878760405161156c929190613356565b60405180910390a4611582818787878787611cee565b611590818787878787611cf6565b505050505050565b6000600360019054906101000a900473ffffffffffffffffffffffffffffffffffffffff16905081600360016101000a81548173ffffffffffffffffffffffffffffffffffffffff021916908373ffffffffffffffffffffffffffffffffffffffff1602179055508173ffffffffffffffffffffffffffffffffffffffff168173ffffffffffffffffffffffffffffffffffffffff167f8be0079c531659141344cd1fd0a4f28419497f9722a3daafe3b4186f6b6457e060405160405180910390a35050565b8173ffffffffffffffffffffffffffffffffffffffff168373ffffffffffffffffffffffffffffffffffffffff16036116cc576040517f08c379a00000000000000000000000000000000000000000000000000000000081526004016116c3906133ff565b60405180910390fd5b80600160008573ffffffffffffffffffffffffffffffffffffffff1673ffffffffffffffffffffffffffffffffffffffff16815260200190815260200160002060008473ffffffffffffffffffffffffffffffffffffffff1673ffffffffffffffffffffffffffffffffffffffff16815260200190815260200160002060006101000a81548160ff0219169083151502179055508173ffffffffffffffffffffffffffffffffffffffff168373ffffffffffffffffffffffffffffffffffffffff167f17307eab39ab6107e8899845ad3d59bd9653f200f220920489ca2b5937696c31836040516117bd91906122fb565b60405180910390a3505050565b6117d26109ea565b15611812576040517f08c379a00000000000000000000000000000000000000000000000000000000081526004016118099061346b565b60405180910390fd5b565b600062015180826118259190612e8f565b836118309190612d4d565b90508281101561183f57600080fd5b92915050565b600073ffffffffffffffffffffffffffffffffffffffff168473ffffffffffffffffffffffffffffffffffffffff16036118b4576040517f08c379a00000000000000000000000000000000000000000000000000000000081526004016118ab906134fd565b60405180910390fd5b60006118be61126f565b905060006118cb85611ecd565b905060006118d885611ecd565b90506118e983600089858589611c90565b8460008088815260200190815260200160002060008973ffffffffffffffffffffffffffffffffffffffff1673ffffffffffffffffffffffffffffffffffffffff16815260200190815260200160002060008282546119489190612d4d565b925050819055508673ffffffffffffffffffffffffffffffffffffffff16600073ffffffffffffffffffffffffffffffffffffffff168473ffffffffffffffffffffffffffffffffffffffff167fc3d58168c5ae7397731d063d5bbf3d657854427343f4c083240f7aacaa2d0f6289896040516119c692919061351d565b60405180910390a46119dd83600089858589611cee565b6119ec83600089898989611f47565b50505050505050565b600073ffffffffffffffffffffffffffffffffffffffff168473ffffffffffffffffffffffffffffffffffffffff1603611a64576040517f08c379a0000000000000000000000000000000000000000000000000000000008152600401611a5b906132a4565b60405180910390fd5b6000611a6e61126f565b90506000611a7b85611ecd565b90506000611a8885611ecd565b9050611a98838989858589611c90565b600080600088815260200190815260200160002060008a73ffffffffffffffffffffffffffffffffffffffff1673ffffffffffffffffffffffffffffffffffffffff16815260200190815260200160002054905085811015611b2f576040517f08c379a0000000000000000000000000000000000000000000000000000000008152600401611b2690613336565b60405180910390fd5b85810360008089815260200190815260200160002060008b73ffffffffffffffffffffffffffffffffffffffff1673ffffffffffffffffffffffffffffffffffffffff168152602001908152602001600020819055508560008089815260200190815260200160002060008a73ffffffffffffffffffffffffffffffffffffffff1673ffffffffffffffffffffffffffffffffffffffff1681526020019081526020016000206000828254611be49190612d4d565b925050819055508773ffffffffffffffffffffffffffffffffffffffff168973ffffffffffffffffffffffffffffffffffffffff168573ffffffffffffffffffffffffffffffffffffffff167fc3d58168c5ae7397731d063d5bbf3d657854427343f4c083240f7aacaa2d0f628a8a604051611c6192919061351d565b60405180910390a4611c77848a8a86868a611cee565b611c85848a8a8a8a8a611f47565b505050505050505050565b611c9e86868686868661211e565b611ca66109ea565b15611ce6576040517f08c379a0000000000000000000000000000000000000000000000000000000008152600401611cdd906135b8565b60405180910390fd5b505050505050565b505050505050565b611d158473ffffffffffffffffffffffffffffffffffffffff16612126565b15611ec5578373ffffffffffffffffffffffffffffffffffffffff1663bc197c8187878686866040518663ffffffff1660e01b8152600401611d5b95949392919061362d565b6020604051808303816000875af1925050508015611d9757506040513d601f19601f82011682018060405250810190611d9491906136aa565b60015b611e3c57611da36136e4565b806308c379a003611dff5750611db7613706565b80611dc25750611e01565b806040517f08c379a0000000000000000000000000000000000000000000000000000000008152600401611df69190612413565b60405180910390fd5b505b6040517f08c379a0000000000000000000000000000000000000000000000000000000008152600401611e3390613808565b60405180910390fd5b63bc197c8160e01b7bffffffffffffffffffffffffffffffffffffffffffffffffffffffff1916817bffffffffffffffffffffffffffffffffffffffffffffffffffffffff191614611ec3576040517f08c379a0000000000000000000000000000000000000000000000000000000008152600401611eba9061389a565b60405180910390fd5b505b505050505050565b60606000600167ffffffffffffffff811115611eec57611eeb61243a565b5b604051908082528060200260200182016040528015611f1a5781602001602082028036833780820191505090505b5090508281600081518110611f3257611f31612b91565b5b60200260200101818152505080915050919050565b611f668473ffffffffffffffffffffffffffffffffffffffff16612126565b15612116578373ffffffffffffffffffffffffffffffffffffffff1663f23a6e6187878686866040518663ffffffff1660e01b8152600401611fac9594939291906138ba565b6020604051808303816000875af1925050508015611fe857506040513d601f19601f82011682018060405250810190611fe591906136aa565b60015b61208d57611ff46136e4565b806308c379a0036120505750612008613706565b806120135750612052565b806040517f08c379a00000000000000000000000000000000000000000000000000000000081526004016120479190612413565b60405180910390fd5b505b6040517f08c379a000000000000000000000000000000000000000000000000000000000815260040161208490613808565b60405180910390fd5b63f23a6e6160e01b7bffffffffffffffffffffffffffffffffffffffffffffffffffffffff1916817bffffffffffffffffffffffffffffffffffffffffffffffffffffffff191614612114576040517f08c379a000000000000000000000000000000000000000000000000000000000815260040161210b9061389a565b60405180910390fd5b505b505050505050565b505050505050565b6000808273ffffffffffffffffffffffffffffffffffffffff163b119050919050565b6000604051905090565b600080fd5b600080fd5b600073ffffffffffffffffffffffffffffffffffffffff82169050919050565b60006121888261215d565b9050919050565b6121988161217d565b81146121a357600080fd5b50565b6000813590506121b58161218f565b92915050565b6000819050919050565b6121ce816121bb565b81146121d957600080fd5b50565b6000813590506121eb816121c5565b92915050565b6000806040838503121561220857612207612153565b5b6000612216858286016121a6565b9250506020612227858286016121dc565b9150509250929050565b61223a816121bb565b82525050565b60006020820190506122556000830184612231565b92915050565b60007fffffffff0000000000000000000000000000000000000000000000000000000082169050919050565b6122908161225b565b811461229b57600080fd5b50565b6000813590506122ad81612287565b92915050565b6000602082840312156122c9576122c8612153565b5b60006122d78482850161229e565b91505092915050565b60008115159050919050565b6122f5816122e0565b82525050565b600060208201905061231060008301846122ec565b92915050565b6000806040838503121561232d5761232c612153565b5b600061233b858286016121dc565b925050602061234c858286016121dc565b9150509250929050565b60006020828403121561236c5761236b612153565b5b600061237a848285016121dc565b91505092915050565b600081519050919050565b600082825260208201905092915050565b60005b838110156123bd5780820151818401526020810190506123a2565b60008484015250505050565b6000601f19601f8301169050919050565b60006123e582612383565b6123ef818561238e565b93506123ff81856020860161239f565b612408816123c9565b840191505092915050565b6000602082019050818103600083015261242d81846123da565b905092915050565b600080fd5b7f4e487b7100000000000000000000000000000000000000000000000000000000600052604160045260246000fd5b612472826123c9565b810181811067ffffffffffffffff821117156124915761249061243a565b5b80604052505050565b60006124a4612149565b90506124b08282612469565b919050565b600067ffffffffffffffff8211156124d0576124cf61243a565b5b602082029050602081019050919050565b600080fd5b60006124f96124f4846124b5565b61249a565b9050808382526020820190506020840283018581111561251c5761251b6124e1565b5b835b81811015612545578061253188826121dc565b84526020840193505060208101905061251e565b5050509392505050565b600082601f83011261256457612563612435565b5b81356125748482602086016124e6565b91505092915050565b600080fd5b600067ffffffffffffffff82111561259d5761259c61243a565b5b6125a6826123c9565b9050602081019050919050565b82818337600083830152505050565b60006125d56125d084612582565b61249a565b9050828152602081018484840111156125f1576125f061257d565b5b6125fc8482856125b3565b509392505050565b600082601f83011261261957612618612435565b5b81356126298482602086016125c2565b91505092915050565b600080600080600060a0868803121561264e5761264d612153565b5b600061265c888289016121a6565b955050602061266d888289016121a6565b945050604086013567ffffffffffffffff81111561268e5761268d612158565b5b61269a8882890161254f565b935050606086013567ffffffffffffffff8111156126bb576126ba612158565b5b6126c78882890161254f565b925050608086013567ffffffffffffffff8111156126e8576126e7612158565b5b6126f488828901612604565b9150509295509295909350565b60006020828403121561271757612716612153565b5b6000612725848285016121a6565b91505092915050565b600067ffffffffffffffff8211156127495761274861243a565b5b602082029050602081019050919050565b600061276d6127688461272e565b61249a565b905080838252602082019050602084028301858111156127905761278f6124e1565b5b835b818110156127b957806127a588826121a6565b845260208401935050602081019050612792565b5050509392505050565b600082601f8301126127d8576127d7612435565b5b81356127e884826020860161275a565b91505092915050565b6000806040838503121561280857612807612153565b5b600083013567ffffffffffffffff81111561282657612825612158565b5b612832858286016127c3565b925050602083013567ffffffffffffffff81111561285357612852612158565b5b61285f8582860161254f565b9150509250929050565b600081519050919050565b600082825260208201905092915050565b6000819050602082019050919050565b61289e816121bb565b82525050565b60006128b08383612895565b60208301905092915050565b6000602082019050919050565b60006128d482612869565b6128de8185612874565b93506128e983612885565b8060005b8381101561291a57815161290188826128a4565b975061290c836128bc565b9250506001810190506128ed565b5085935050505092915050565b6000602082019050818103600083015261294181846128c9565b905092915050565b6129528161217d565b82525050565b600060208201905061296d6000830184612949565b92915050565b61297c816122e0565b811461298757600080fd5b50565b60008135905061299981612973565b92915050565b600080604083850312156129b6576129b5612153565b5b60006129c4858286016121a6565b92505060206129d58582860161298a565b9150509250929050565b600080604083850312156129f6576129f5612153565b5b6000612a04858286016121a6565b9250506020612a15858286016121a6565b9150509250929050565b600060208284031215612a3557612a34612153565b5b600082013567ffffffffffffffff811115612a5357612a52612158565b5b612a5f848285016127c3565b91505092915050565b600080600080600060a08688031215612a8457612a83612153565b5b6000612a92888289016121a6565b9550506020612aa3888289016121a6565b9450506040612ab4888289016121dc565b9350506060612ac5888289016121dc565b925050608086013567ffffffffffffffff811115612ae657612ae5612158565b5b612af288828901612604565b9150509295509295909350565b7f455243313135353a2061646472657373207a65726f206973206e6f742061207660008201527f616c6964206f776e657200000000000000000000000000000000000000000000602082015250565b6000612b5b602a8361238e565b9150612b6682612aff565b604082019050919050565b60006020820190508181036000830152612b8a81612b4e565b9050919050565b7f4e487b7100000000000000000000000000000000000000000000000000000000600052603260045260246000fd5b7f4e487b7100000000000000000000000000000000000000000000000000000000600052602260045260246000fd5b60006002820490506001821680612c0757607f821691505b602082108103612c1a57612c19612bc0565b5b50919050565b7f455243313135353a207472616e736665722063616c6c6572206973206e6f742060008201527f6f776e6572206e6f7220617070726f7665640000000000000000000000000000602082015250565b6000612c7c60328361238e565b9150612c8782612c20565b604082019050919050565b60006020820190508181036000830152612cab81612c6f565b9050919050565b7f4261746368207472616e73666572206973206e6f7420616c6c6f776564000000600082015250565b6000612ce8601d8361238e565b9150612cf382612cb2565b602082019050919050565b60006020820190508181036000830152612d1781612cdb565b9050919050565b7f4e487b7100000000000000000000000000000000000000000000000000000000600052601160045260246000fd5b6000612d58826121bb565b9150612d63836121bb565b9250828201905080821115612d7b57612d7a612d1e565b5b92915050565b7f455243313135353a206163636f756e747320616e6420696473206c656e67746860008201527f206d69736d617463680000000000000000000000000000000000000000000000602082015250565b6000612ddd60298361238e565b9150612de882612d81565b604082019050919050565b60006020820190508181036000830152612e0c81612dd0565b9050919050565b6000612e1e826121bb565b91507fffffffffffffffffffffffffffffffffffffffffffffffffffffffffffffffff8203612e5057612e4f612d1e565b5b600182019050919050565b6000612e66826121bb565b9150612e71836121bb565b9250828203905081811115612e8957612e88612d1e565b5b92915050565b6000612e9a826121bb565b9150612ea5836121bb565b9250828202612eb3816121bb565b91508282048414831517612eca57612ec9612d1e565b5b5092915050565b6000604082019050612ee66000830185612949565b612ef36020830184612231565b9392505050565b600081519050612f0981612973565b92915050565b600060208284031215612f2557612f24612153565b5b6000612f3384828501612efa565b91505092915050565b600081519050612f4b816121c5565b92915050565b600060208284031215612f6757612f66612153565b5b6000612f7584828501612f3c565b91505092915050565b7f455243313135353a2063616c6c6572206973206e6f74206f776e6572206e6f7260008201527f20617070726f7665640000000000000000000000000000000000000000000000602082015250565b6000612fda60298361238e565b9150612fe582612f7e565b604082019050919050565b6000602082019050818103600083015261300981612fcd565b9050919050565b7f596f7520646f206e6f7420686176652074686973204e465420617661696c616260008201527f6c65000000000000000000000000000000000000000000000000000000000000602082015250565b600061306c60228361238e565b915061307782613010565b604082019050919050565b6000602082019050818103600083015261309b8161305f565b9050919050565b7f4f776e61626c653a206e6577206f776e657220697320746865207a65726f206160008201527f6464726573730000000000000000000000000000000000000000000000000000602082015250565b60006130fe60268361238e565b9150613109826130a2565b604082019050919050565b6000602082019050818103600083015261312d816130f1565b9050919050565b7f4f776e61626c653a2063616c6c6572206973206e6f7420746865206f776e6572600082015250565b600061316a60208361238e565b915061317582613134565b602082019050919050565b600060208201905081810360008301526131998161315d565b9050919050565b7f455243313135353a2069647320616e6420616d6f756e7473206c656e6774682060008201527f6d69736d61746368000000000000000000000000000000000000000000000000602082015250565b60006131fc60288361238e565b9150613207826131a0565b604082019050919050565b6000602082019050818103600083015261322b816131ef565b9050919050565b7f455243313135353a207472616e7366657220746f20746865207a65726f20616460008201527f6472657373000000000000000000000000000000000000000000000000000000602082015250565b600061328e60258361238e565b915061329982613232565b604082019050919050565b600060208201905081810360008301526132bd81613281565b9050919050565b7f455243313135353a20696e73756666696369656e742062616c616e636520666f60008201527f72207472616e7366657200000000000000000000000000000000000000000000602082015250565b6000613320602a8361238e565b915061332b826132c4565b604082019050919050565b6000602082019050818103600083015261334f81613313565b9050919050565b6000604082019050818103600083015261337081856128c9565b9050818103602083015261338481846128c9565b90509392505050565b7f455243313135353a2073657474696e6720617070726f76616c2073746174757360008201527f20666f722073656c660000000000000000000000000000000000000000000000602082015250565b60006133e960298361238e565b91506133f48261338d565b604082019050919050565b60006020820190508181036000830152613418816133dc565b9050919050565b7f5061757361626c653a2070617573656400000000000000000000000000000000600082015250565b600061345560108361238e565b91506134608261341f565b602082019050919050565b6000602082019050818103600083015261348481613448565b9050919050565b7f455243313135353a206d696e7420746f20746865207a65726f2061646472657360008201527f7300000000000000000000000000000000000000000000000000000000000000602082015250565b60006134e760218361238e565b91506134f28261348b565b604082019050919050565b60006020820190508181036000830152613516816134da565b9050919050565b60006040820190506135326000830185612231565b61353f6020830184612231565b9392505050565b7f455243313135355061757361626c653a20746f6b656e207472616e736665722060008201527f7768696c65207061757365640000000000000000000000000000000000000000602082015250565b60006135a2602c8361238e565b91506135ad82613546565b604082019050919050565b600060208201905081810360008301526135d181613595565b9050919050565b600081519050919050565b600082825260208201905092915050565b60006135ff826135d8565b61360981856135e3565b935061361981856020860161239f565b613622816123c9565b840191505092915050565b600060a0820190506136426000830188612949565b61364f6020830187612949565b818103604083015261366181866128c9565b9050818103606083015261367581856128c9565b9050818103608083015261368981846135f4565b90509695505050505050565b6000815190506136a481612287565b92915050565b6000602082840312156136c0576136bf612153565b5b60006136ce84828501613695565b91505092915050565b60008160e01c9050919050565b600060033d11156137035760046000803e6137006000516136d7565b90505b90565b600060443d1061379357613718612149565b60043d036004823e80513d602482011167ffffffffffffffff82111715613740575050613793565b808201805167ffffffffffffffff81111561375e5750505050613793565b80602083010160043d03850181111561377b575050505050613793565b61378a82602001850186612469565b82955050505050505b90565b7f455243313135353a207472616e7366657220746f206e6f6e2d4552433131353560008201527f526563656976657220696d706c656d656e746572000000000000000000000000602082015250565b60006137f260348361238e565b91506137fd82613796565b604082019050919050565b60006020820190508181036000830152613821816137e5565b9050919050565b7f455243313135353a204552433131353552656365697665722072656a6563746560008201527f6420746f6b656e73000000000000000000000000000000000000000000000000602082015250565b600061388460288361238e565b915061388f82613828565b604082019050919050565b600060208201905081810360008301526138b381613877565b9050919050565b600060a0820190506138cf6000830188612949565b6138dc6020830187612949565b6138e96040830186612231565b6138f66060830185612231565b818103608083015261390881846135f4565b9050969550505050505056fea2646970667358221220906e012926b56d68cc1af22907ddc185012257142fc730eed4128990ae60d9c464736f6c63430008110033",
  "devdoc": {
    "kind": "dev",
    "methods": {
      "balanceOf(address,uint256)": {
        "details": "See {IERC1155-balanceOf}. Requirements: - `account` cannot be the zero address."
      },
      "balanceOfBatch(address[],uint256[])": {
        "details": "See {IERC1155-balanceOfBatch}. Requirements: - `accounts` and `ids` must have the same length."
      },
      "isApprovedForAll(address,address)": {
        "details": "See {IERC1155-isApprovedForAll}."
      },
      "owner()": {
        "details": "Returns the address of the current owner."
      },
      "paused()": {
        "details": "Returns true if the contract is paused, and false otherwise."
      },
      "renounceOwnership()": {
        "details": "Leaves the contract without owner. It will not be possible to call `onlyOwner` functions anymore. Can only be called by the current owner. NOTE: Renouncing ownership will leave the contract without an owner, thereby removing any functionality that is only available to the owner."
      },
      "safeBatchTransferFrom(address,address,uint256[],uint256[],bytes)": {
        "details": "See {IERC1155-safeBatchTransferFrom}."
      },
      "safeTransferFrom(address,address,uint256,uint256,bytes)": {
        "details": "See {IERC1155-safeTransferFrom}."
      },
      "setApprovalForAll(address,bool)": {
        "details": "See {IERC1155-setApprovalForAll}."
      },
      "supportsInterface(bytes4)": {
        "details": "See {IERC165-supportsInterface}."
      },
      "transferOwnership(address)": {
        "details": "Transfers ownership of the contract to a new account (`newOwner`). Can only be called by the current owner."
      },
      "uri(uint256)": {
        "details": "See {IERC1155MetadataURI-uri}. This implementation returns the same URI for *all* token types. It relies on the token type ID substitution mechanism https://eips.ethereum.org/EIPS/eip-1155#metadata[defined in the EIP]. Clients calling this function must replace the `\\{id\\}` substring with the actual token type ID."
      }
    },
    "version": 1
  },
  "userdoc": {
    "kind": "user",
    "methods": {},
    "version": 1
  },
  "storageLayout": {
    "storage": [
      {
        "astId": 249,
        "contract": "contracts/BabyMonster.sol:BabyMonster",
        "label": "_balances",
        "offset": 0,
        "slot": "0",
        "type": "t_mapping(t_uint256,t_mapping(t_address,t_uint256))"
      },
      {
        "astId": 255,
        "contract": "contracts/BabyMonster.sol:BabyMonster",
        "label": "_operatorApprovals",
        "offset": 0,
        "slot": "1",
        "type": "t_mapping(t_address,t_mapping(t_address,t_bool))"
      },
      {
        "astId": 257,
        "contract": "contracts/BabyMonster.sol:BabyMonster",
        "label": "_uri",
        "offset": 0,
        "slot": "2",
        "type": "t_string_storage"
      },
      {
        "astId": 133,
        "contract": "contracts/BabyMonster.sol:BabyMonster",
        "label": "_paused",
        "offset": 0,
        "slot": "3",
        "type": "t_bool"
      },
      {
        "astId": 7,
        "contract": "contracts/BabyMonster.sol:BabyMonster",
        "label": "_owner",
        "offset": 1,
        "slot": "3",
        "type": "t_address"
      },
      {
        "astId": 3654,
        "contract": "contracts/BabyMonster.sol:BabyMonster",
        "label": "_faucetAmount",
        "offset": 0,
        "slot": "4",
        "type": "t_array(t_uint256)dyn_storage"
      },
      {
        "astId": 3658,
        "contract": "contracts/BabyMonster.sol:BabyMonster",
        "label": "_stacking",
        "offset": 0,
        "slot": "5",
        "type": "t_mapping(t_address,t_uint256)"
      },
      {
        "astId": 3662,
        "contract": "contracts/BabyMonster.sol:BabyMonster",
        "label": "_NextAvailableFaucet",
        "offset": 0,
        "slot": "6",
        "type": "t_mapping(t_address,t_uint256)"
      },
      {
        "astId": 3664,
        "contract": "contracts/BabyMonster.sol:BabyMonster",
        "label": "_totalStacked",
        "offset": 0,
        "slot": "7",
        "type": "t_uint256"
      },
      {
        "astId": 3666,
        "contract": "contracts/BabyMonster.sol:BabyMonster",
        "label": "_MSTTokenAddress",
        "offset": 0,
        "slot": "8",
        "type": "t_address"
      }
    ],
    "types": {
      "t_address": {
        "encoding": "inplace",
        "label": "address",
        "numberOfBytes": "20"
      },
      "t_array(t_uint256)dyn_storage": {
        "base": "t_uint256",
        "encoding": "dynamic_array",
        "label": "uint256[]",
        "numberOfBytes": "32"
      },
      "t_bool": {
        "encoding": "inplace",
        "label": "bool",
        "numberOfBytes": "1"
      },
      "t_mapping(t_address,t_bool)": {
        "encoding": "mapping",
        "key": "t_address",
        "label": "mapping(address => bool)",
        "numberOfBytes": "32",
        "value": "t_bool"
      },
      "t_mapping(t_address,t_mapping(t_address,t_bool))": {
        "encoding": "mapping",
        "key": "t_address",
        "label": "mapping(address => mapping(address => bool))",
        "numberOfBytes": "32",
        "value": "t_mapping(t_address,t_bool)"
      },
      "t_mapping(t_address,t_uint256)": {
        "encoding": "mapping",
        "key": "t_address",
        "label": "mapping(address => uint256)",
        "numberOfBytes": "32",
        "value": "t_uint256"
      },
      "t_mapping(t_uint256,t_mapping(t_address,t_uint256))": {
        "encoding": "mapping",
        "key": "t_uint256",
        "label": "mapping(uint256 => mapping(address => uint256))",
        "numberOfBytes": "32",
        "value": "t_mapping(t_address,t_uint256)"
      },
      "t_string_storage": {
        "encoding": "bytes",
        "label": "string",
        "numberOfBytes": "32"
      },
      "t_uint256": {
        "encoding": "inplace",
        "label": "uint256",
        "numberOfBytes": "32"
      }
    }
  }
}